:1000000000100020A9A300003BB403003BB4030090
:1000100069CB03003BB403003BB403003BB40300D3
:100020003BB403003BB403003BB403003BB4030008
:100030003BB40300100D050083B103003BB4030083
:10004000C5B60300B1C204003BB403003BB40300D7
:10005000B96A0300C1C20400BDC20400A17203005A
:10006000B5C20400D9AB000049AD00003BB40300A9
:10007000F1130000A1B203003BB403003BB4030042
:100080003BB403003BB4030065AD00003BB4030088
:100090003BB403003BB403003BB403003BB4030098
:1000A0003BB403003BB403003BB403003BB4030088
:1000B000D5720300B9C20400ED8D030035FC0000C9
:1000C000117303003BB40300515503003BB403001C
:1000D0003BB403003BB403003BB403003BB4030058
:1000E0003BB403003BB403003BB403003BB4030048
:1000F0003BB403003BB403003BB40300000000002A
:10010000013800D0FCE7704700000000000000004C
:1001100001F0FF01102A2BDB10F0070F08D010F8B8
:10012000013B013A8B422DD010F0070F42B3F6D1BC
:10013000F0B441EA012141EA014122F007047FF0D5
:1001400000070023F0E80256083C85EA010586EA2C
:10015000010685FA47F5A3FA87F586FA47F6A5FA68
:1001600087F68EB9EED1F0BC01F0FF0102F0070274
:1001700032B110F8013B013A83EA010313B1F8D11F
:100180000020704701387047002D06BF3546033800
:10019000073815F0010F07D1013015F4807F02BF39
:1001A000013015F4C03F0130F0BC0138704700BF8A
:1001B00013B51F4C01A8214601F03AF960B13BF09C
:1001C000C7F83BF0C6F81B4B1B4918683CF0F7FA20
:1001D0000023236002B010BD184B1B78022BF9D10D
:1001E0004FF47A73206890FBF3F007EE900AF8EE74
:1001F000E77A17EE900A39F0E3FA0BA3D3E900236C
:1002000039F050F80E4B002239F07CF939F058FBE8
:10021000DFED0C7A07EE100A67EE277AFDEEE77A3B
:1002200017EE903AD5E700BFCDCCCCCCCCCCFC3F80
:10023000B1310020E01A002058CB04002C1300201C
:100240000000404000007A4470B5414C00238AB061
:10025000E363054618B10088236017F0E7FB3D4EC5
:100260003D484BF0EAFC3D4B336030463C4B7360FD
:1002700041F020FF0021304632F0C4FD32A3D3E923
:100280000023A062C4E9062341F01FFFD4E906233E
:10029000194310434FF0FF33C4E90601CDE90001D3
:1002A0004FF0FF32A06A4BF031FD02224FF0FF31D8
:1002B000A06A4BF02DFD012017F062F82949A06AD1
:1002C0004FF4007300224BF08AFDB0F5007F38D167
:1002D0000023CDE90733099394223C23CDE903326F
:1002E0000593A06A962303A9069332F0ADFE35B3B9
:1002F000287C17F04FFC0546F0B9A06A4BF04CFE85
:1003000017F0F0FB17F01EF820B14FF480700021B9
:1003100014F0C0F817F026F820B14FF40060002167
:1003200014F0B8F841F095FE012032F0BFFD0E4AFE
:100330000E49A06A41F0BCFE28460AB070BDFF20FD
:10034000D7E70725F8E700BF0DD5015520000000CD
:10035000F8130020C02C0020690345EC1172010045
:10036000B42C0020B42A0020592004009920040055
:1003700010B5054C237833B9044B13B10448AFF3DF
:1003800000800123237010BD4819002000000000E8
:100390009455050008B5034B1BB103490348AFF35F
:1003A000008008BD000000004C1900209455050095
:1003B000A3F5803A704700BF174B002B08BF134BC3
:1003C0009D46FFF7F5FF00218B460F461348144A60
:1003D000121A4CF0AAF90E4B002B00D098470D4B87
:1003E000002B00D098470020002104000D000D488C
:1003F000002802D00C48AFF3008039F04FFC2000F9
:1004000029003AF0B2FE39F035FC00BF00000800C8
:1004100000000000000000000010002088130020F1
:10042000983D00200000000000000000024A136810
:1004300003F5FA7313607047D41900207FB5234D7C
:10044000234C3AF085FF3AF084FF224928683CF0BB
:10045000B6F9FFF7ADFE204B029304220123CDE94C
:1004600000320223A288618820881EF097FE06468B
:1004700058B13AF06DFF3AF06CFF184932462868DF
:1004800004B0BDE870403CF09AB93AF061FF3AF030
:1004900060FF134928683CF092F9A288618820889F
:1004A0001EF09EFE044630B13AF052FF3AF051FF82
:1004B0000C492246E3E73AF04BFF3AF04AFF0A497B
:1004C000286804B0BDE870403CF079B9E01A00201B
:1004D0008812002094CB0400B1310020B0CB04007E
:1004E000D1CB0400F7CB040010CC040010B5254C90
:1004F00088B03AF02DFF3AF02CFF234920683CF0F9
:100500005EF93AF025FF3AF024FF204920683CF0DC
:1005100056F909F095FB002304220F2103200BF06C
:1005200059FF1B4B4FF40042C3F89C2000211622B8
:1005300002A84CF0FAF8022116483AF006FF1649D4
:1005400002A84CF01FF9012102A83AF0FEFE012397
:100550000093124A124800234FF4FA7109F050FC3C
:1005600041F2111211464CF2010300201EF026FD4B
:100570003AF0EEFE3AF0EDFE0A4920683CF01FF931
:1005800008B010BDE01A00202CCC040040CC0400C0
:1005900000A0004650CC04005BCC04002D040000F9
:1005A0009C19002069CC040070B50368764A23F4D6
:1005B0007F4323F0070393428EB0054606D002F135
:1005C0004072934200F087800EB070BD6F4BD3F83D
:1005D000982112BBD3F89821002AFBD03AF0B8FE3C
:1005E0003AF0B7FE6A4B6B4918683CF0E8F81622FF
:1005F000002108A84CF099F8674908A84CF0C2F807
:10060000022108A83AF0A1FE1EF086FC0023634AEE
:1006100063480093642109F0F3FB5D4D3AF098FEC6
:100620003AF097FE5F4928683CF0C9F81EF02AFCB2
:10063000044610B35C4928683CF0C1F85B4928685F
:100640003CF0BDF83AF084FE3AF083FE584B00933C
:10065000584A594928684FF48E733CF0B0F857490E
:10066000574A286823463CF0AAF8204609F070FB58
:10067000544928683CF0A3F8FEE7534C5349204600
:1006800019F0FAFD014668B107903AF061FE3AF0C0
:1006900060FE079928680A464D490EB0BDE87040D3
:1006A0003CF08DB8162208A84CF03FF8237804934C
:1006B00063780393A3780293E378019323790093FB
:1006C0006379444A162108A839F0DAFC042108A805
:1006D0003AF03BFE78E742682D4C12F020022ED013
:1006E000FFF766FD3AF034FE3AF033FE3A492068EF
:1006F0003CF065F8394A04210223686840060AD5AF
:100700003AF026FE3AF025FE354920683CF057F8CD
:10071000344A01210623CDE90112334D0122009212
:10072000AA88698828881EF039FD064650B13AF03B
:100730000FFE3AF00EFE2D4932462068ADE7114615
:100740001346DAE73AF004FE3AF003FE284920683F
:100750003CF035F8AA88698828881EF041FD0546D6
:1007600030B13AF0F5FD3AF0F4FD22492A46E4E7CB
:100770003AF0EEFD3AF0EDFD1F4920680EB0BDE8FD
:1007800070403CF01CB800BFA000010000201442E3
:10079000E01A002084CC040094CC040051B1030082
:1007A00064190020A2CC0400930C0500AECC040018
:1007B00096D60400B3CC04001BCD04002ACD04005F
:1007C00027CD04003FCD0400AA310020B031002025
:1007D00067CD0400A7CD0400C5CD0400B1310020D1
:1007E000D3CD04002C13002088120020B0CB0400CD
:1007F000D1CB0400F7CB0400E1CD04002DE9F04398
:10080000054693B03AF0A4FD414E424C3AF0A1FDAA
:100810002A684149206832403BF0D1FF2B683F4AAB
:100820003340934200F0658243D8A2F13C72934278
:1008300000F07B840CD8A2F58012934200F08280F5
:1008400002F5A022934200F05A8213B0BDE8F08373
:10085000334A934200F0298202F580129342F4D188
:10086000304D2B681622013B00210CA82B604BF069
:100870005CFF2D490CA84BF085FF02210CA83AF033
:1008800064FD162200210CA84BF04FFF2B68274A6D
:1008900016210CA839F0F4FB03210CA83AF055FD01
:1008A0003AF056FD3AF055FD214920683BF087FFAC
:1008B000CBE7204A934200F0098214D802F17E422D
:1008C000934200F0FD8102F180729342BDD13AF073
:1008D0003FFD3AF03EFDAA881749206813B0BDE8F5
:1008E000F0433BF06CBF154A9342AED13AF030FD75
:1008F0003AF02FFDB5F807300193B5F809300093B1
:10090000B5F805302A790E4920683BF058FF9CE77E
:10091000F800FFFFE01A00200ACE0400A80014032C
:10092000A8001401D81900204BD6040058D60400A2
:1009300066D60400A80014088ED00400A80014098C
:1009400006D10400914E3AF003FD3AF002FD9049C1
:1009500020683BF034FF334633F8080B0193F379FA
:100960000093B379B28871881EF050FC07460028C6
:1009700040F0F7803AF0ECFC3AF0EBFC8549206857
:100980003BF01DFF2F79844D0DF13008002F00F052
:1009900025813AF0DDFC3AF0DCFC804920683BF030
:1009A0000EFF0DF12D0304930BAB03930DF12B03FD
:1009B00002930DF12A03CDE900830DF12E03B288D5
:1009C000718830881EF04AFB09903AF0C1FC3AF079
:1009D000C0FCBDF83030099A714920683BF0EFFE49
:1009E0003AF0B6FC3AF0B5FC6E4920683BF0E7FE01
:1009F000E86829686A6800900023CDE90133012086
:100A0000AB681EF06BFB05463AF0A2FC3AF0A1FC85
:100A1000654920682A463BF0D2FE45B13AF098FC81
:100A20003AF097FC614920682A463BF0C8FE3AF04C
:100A30008FFC3AF08EFC5E4920683BF0C0FE3AF035
:100A400087FC3AF086FCB388019373880093328860
:100A50005849206800233BF0B2FEB3887288308882
:100A600000211EF08FFA58B140F20253984207D08D
:100A70003AF06EFC3AF06DFC4F4920683BF09FFE67
:100A80003AF066FC3AF065FC4C4920683BF097FE72
:100A900000214CF201030522CDE90311CDE900321A
:100AA0000291B388728830881EF0A4FA58B140F2DF
:100AB0000253984207D03AF04BFC3AF04AFC4049C6
:100AC00020683BF07CFE3AF043FC3AF042FC3D49A2
:100AD00020683BF074FEB288718830884CF20103C4
:100AE0001EF06CFA58B140F20253984207D03AF027
:100AF0002FFC3AF02EFC344920683BF060FE3AF0BF
:100B000027FC3AF026FC314920683BF058FE0022D1
:100B1000114601201EF020FA054640B13AF018FCBB
:100B20003AF017FC214920682A463BF048FE3AF08B
:100B30000FFC3AF00EFC264920683BF040FE0421F1
:100B400002201EF0F5F9054600283FF47EAE3AF08B
:100B5000FFFB3AF0FEFB154920682A463BF02FFECA
:100B600073E640F20253984205D13AF0F1FB3AF0B5
:100B7000F0FB184903E73AF0EBFB3AF0EAFB1649C1
:100B800020683A463BF01BFEFCE600BF88120020BE
:100B90001ACE040031CE0400A5D604008DCE040088
:100BA000A9CE0400E6CE0400FECE040090CF0400DF
:100BB000A5CF0400BECF0400EFCF0400FFCF040098
:100BC00019D0040028D0040042D0040051D0040001
:100BD00061D004004ACE040067CE04003AF0B8FBAE
:100BE0003AF0B7FB94492068944E3BF0E8FD394653
:100BF000404619F041FBBDF83030C3F30E0333809B
:100C00003AF0A6FB3AF0A5FB32888D4920683BF00C
:100C1000D6FD3AF09DFB3AF09CFB8A4920683BF0F8
:100C2000CEFD079733880497CDE905736E462B46B2
:100C300005F1100718685968324603C20833BB42F1
:100C40001646F7D128686968AA68EB681EF026F98D
:100C5000054610B37C4920683BF0B1FD7B49206814
:100C60003BF0ADFD3AF074FB3AF073FB784B794AF8
:100C70007949009320684FF4D5733BF0A0FD774984
:100C8000774A20682B463BF09AFD284609F060F829
:100C9000744920683BF093FDFEE700900346724ADA
:100CA0007248642109F0ACF8CFE53AF051FB3AF014
:100CB00050FB6F49206813B0BDE8F0433BF07FBDA7
:100CC0003AF046FB3AF045FB6A49F3E73AF040FB5D
:100CD0003AF03FFB28796849684AB5F805300028A2
:100CE00018BF0A466649206813B0BDE8F0433BF0E0
:100CF00066BD3AF02DFB3AF02CFB6249DAE73AF098
:100D000027FB3AF026FB2B7D0793EB7C06936B7C4D
:100D10000593B5F80F30049395F90E300393AB8823
:100D20000293AB8901936B8900932B89EA8856491A
:100D30002068DFF880913BF042FD05F116066FF068
:100D400015083746A8EB05086A7D08EB06039342B1
:100D500022DB3AF0FDFA3AF0FCFA4C4920683BF00D
:100D60002EFD95F8138008F1FF33122B2ED8DFE803
:100D700013F0A3002D00FE000C0120012D002D001A
:100D80002D0034012D002D002D002D002D002D00F3
:100D90001E00320042004D003AF0DAFA3AF0D9FA79
:100DA00016F8012B206849463BF009FDCCE73AF0E4
:100DB000CFFA3AF0CEFA364920683BF000FD3548CC
:100DC00003213AF0C2FA34483AF0DCFB00263746F9
:100DD000B146B0467EE03AF0BBFA3AF0BAFA2F4993
:100DE00020683BF0ECFC2E4803213AF0AEFA2A488A
:100DF0003AF0C5FBEAE73AF0ABFA3AF0AAFA294929
:100E000020683BF0DCFC28480321EEE7EE8A274A05
:100E1000334616210CA839F033F902210CA83AF018
:100E200094FA3AF095FA3AF094FA21492068324659
:100E30003BF0C5FCCAE700BF1ACF04001431002004
:100E40002FCF04004ACF0400930C0500AECC040061
:100E500083D60400B3CC04001BCD04002ACD0400CB
:100E600027CD040061CF040051B1030064190020B4
:100E700079D00400B5D00400FECD0400F6CD040006
:100E8000CDD00400ECD0040053D1040016D00400EF
:100E900084D204009DD2040054D90400A2D20400DC
:100EA000BBD20400C9D20400E4D20400ECD2040096
:100EB000F3D2040080D204003AF04AFA3AF049FA38
:100EC000B2492068B24E3BF07AFCFFF771F9042773
:100ED0004FF0020918F0010F20D00122CDE905766C
:100EE000CDE90392AB4B6A7C02929A8801925A88B0
:100EF0000092B5F80F2095F90E10A8891B881EF0F6
:100F000017F90546002800F0E8803AF021FA3AF097
:100F100020FAA14920682A463BF051FC18F0020F44
:100F20001FD03AF015FA3AF014FA9C492068994D0E
:100F30003BF045FCCDE9017601230093AA8869883E
:100F400028884B461EF02AF90646002800F0CE807D
:100F50003AF0FEF93AF0FDF99149324620683BF04B
:100F60002EFC3AF0F5F93AF0F4F98E49A2E63AF09F
:100F7000EFF901273AF0EDF98B4920688B4E3BF0F1
:100F80001EFC4FF00609B846A4E73AF0E1F93AF042
:100F9000E0F987492068854E3BF011FC39466A7DAF
:100FA00082484BF09AFB01274FF006094FF00308E7
:100FB00090E73AF0CDF93AF0CCF97E4920687B4EC3
:100FC0003BF0FDFB39466A7D78484BF086FB0127F4
:100FD0004FF006094FF002087CE7774E6A7DDFF894
:100FE0002482394630464BF078FB3AF0B1F93AF0BA
:100FF000B0F93278714920683BF0E1FB36783AF07D
:10100000A7F93AF0A6F96E49206832463BF0D7FBC3
:101010003AF09EF93AF09DF96A49206832463BF071
:10102000CEFB06F0C003802B40D02DD893B3402BCD
:1010300037D0D8F80030002B3DD03AF089F93AF09B
:1010400088F9D8F80010604BB1FBF3F24EF660203F
:10105000002703FB12130197B3FBF0F3B1FBF0F78A
:1010600000FB17114FF47A772068B1FBF7F100917C
:1010700056493BF0A4FB012736BB554808F0A6FEB5
:101080004D4E4FF00A09A5E7C02BD2D1514A26F0A8
:10109000C00302E026F0C00364225343C8F80030C6
:1010A000C7E726F0C0034FF47A72F6E726F0C003D4
:1010B00042F21072F1E73AF04BF93AF04AF9464938
:1010C00020683BF07CFBD6E70097444AD8F8001034
:1010D0003F48002308F094FED2E73AF039F93AF09D
:1010E00038F93F4920683BF06AFB17E73AF030F9DE
:1010F0003AF02FF93B4920683BF061FBAA886988E8
:1011000028881EF06DF8054630B13AF021F93AF022
:1011100020F935492A4621E73AF01AF93AF019F947
:10112000324920683BF04BFB1BE7314A136801331F
:1011300013603AF00DF93AF00CF9EA882D4920686D
:101140003BF03DFB04212C483AF0FFF841F211122C
:1011500011464CF2010300201DF030FF3AF0F8F880
:101160003AF0F7F8254920683BF029FB002141F2CD
:1011700011131A4608461DF005FF09903AF0E8F8E9
:101180003AF0E7F8099A1E49FFF7A7BB05D3040018
:10119000B13100208812002041D5040078D5040028
:1011A000B0CB040016D004005BD304002C13002045
:1011B000A3D30400EBD30400B53100203AD40400DB
:1011C0009DD40400CAD4040080EE3600EDD404009F
:1011D000E0190020C027090024D504003D040000C8
:1011E00064D5040094D50400F7CB0400BBD50400FB
:1011F000D8190020D9D5040007D6040011D6040060
:101200002BD60400DC19002001481CF019BD00BFDA
:1012100098D8040038B50AF00FFB0E480E4C012197
:1012200009F05EFF0122114600200AF039FA02257A
:1012300001221146C4F8805000200AF031FA012240
:10124000C4F88450114600200AF02AFAC4F88850E5
:10125000002038BD30253E0000400E40204B07B531
:1012600001225A641A6842F480721A6001A80BF0D5
:101270004FFB9DF80530012B03D89DF80430022B5D
:101280000DD9184B4FF41872C3F88C22164AC3F8C4
:101290009022164AC3F8F022154AC3F8F822154ADC
:1012A000D2F8A43143F4F843C2F8A4310DF07CF92C
:1012B00008F0A4FE0DF014F90DF062F90DF026F916
:1012C000FFF7A8FF3BF01FFA08F08AFE09F006F9C5
:1012D00009F056FD03B05DF804EB0DF0F1BD00BF61
:1012E00000000E4000400E409A6F050018010004F7
:1012F0000084320800300E4008B50448012109F08E
:10130000EFFEBDE80840024809F0D4B900350A00F4
:101310000810002030B5224D0FCD97B00FAC0FC490
:1013200095E80700302384E807008DF855301D4A02
:101330001D4BCDE903234FF08073059303F1022386
:1013400006934FF0F0511E23CDE907131022002120
:101350000BA84BF0EAF9154B4FF44020CDE90903F7
:101360000C238DF82C300D238DF82D30104B0C9361
:1013700020230D930F4B009309A903AB0FAA0E482E
:101380000DF048FB9DF83A30002B04460CBF0321BA
:1013900000214FF4E1303AF021F8204617B030BD7B
:1013A00008D9040000000140003204001C00014084
:1013B000B6310020181A0020741A0020012905D81F
:1013C000034B1B68186808B1436A1847704700BF91
:1013D0002810002008B5044904480DF01DFEBDE8A2
:1013E0000840FFF797BF00BF201000206C1A0020B4
:1013F00001483BF051BB00BF741A0020014B1A6A30
:1014000018681047741A002008B504483AF023F809
:10141000BDE8084002483AF01EB800BF24D90400D5
:101420003CD9040001483AF0A7B800BF54D90400E1
:10143000124B1B7870B5124C06460D4693B109F05D
:101440005FFD4FF47A73434323602B600D4A0E49CE
:101450001368336003F57A738B4288BF00231360EF
:10146000002070BD23680B6044F6206203F57A7398
:101470009342C8BF054B2360E8E700BFD631002088
:1014800034100020981A0020A0860100E0B1FFFF70
:10149000F8B5084E084F0C460546084930683BF041
:1014A0008EF9013C2A5D306839463BF088F9013CF1
:1014B000F8D2F8BDE01A0020C0CD04006CD90400B9
:1014C000F8B50B4E0B4F04460D4630680A493BF009
:1014D00076F92544AC42306804D1BDE8F8400749AC
:1014E0003BF06DB914F8012B39463BF068F9F1E790
:1014F000E01A0020C0CD04006FD9040071D90400A7
:1015000010B5074C39F024FF39F023FF0549206856
:101510003BF055F920680449BDE810403BF04FB955
:10152000E01A002073D9040083D9040038B50446BA
:10153000D0B30368974A23F47F4323F00703934211
:1015400004F0458401F28E83A2F13472934206F0D6
:101550000A8600F2AD85A2F56D02934207F08787F7
:1015600000F2D682A2F56812934207F04A8400F294
:101570004581A2F59012934203F0FD8579D8A2F53A
:10158000C022934203F03E840FD8A2F580229342FA
:1015900003F07B8002F54032934203F0A383A2F56F
:1015A0008022934202F0078538BD7B4A934203F0C4
:1015B000E28402F54032934203F08685A2F5802250
:1015C0009342F1D1754D39F0C3FE39F0C2FE744932
:1015D00028683BF0F4F8734928683BF0F0F8A288DB
:1015E000714928683BF0EBF8704928683BF0E7F850
:1015F000E2886D4928683BF0E2F86D4928683BF0C5
:10160000DEF82289684928683BF0D9F869492868DA
:101610003BF0D5F86289644928683BF0D0F8664908
:1016200028683BF0CCF8227B644928683BF0C7F877
:10163000634928683BF0C3F8627B604928683BF047
:10164000BEF8604928683BF0BAF8E2895649286834
:101650003BF0B5F85C4928683BF0B1F8217C04F117
:101660001100FFF72DFF28685849BDE838403BF0CE
:10167000A6B8574A934203F08E8737D8A2F5802246
:10168000934203F0DA8602F58032934203F0388702
:10169000A2F50032934287D1404D39F059FE39F01E
:1016A00058FE4C4928683BF08AF84B4928683BF0C3
:1016B00086F8A2883C4928683BF081F847492868A9
:1016C0003BF07DF8A2793D4928683BF078F8444921
:1016D00028683BF074F8E279384928683BF06FF8E5
:1016E00028683A49BDE838403BF069B83D4A934222
:1016F00004F0F68502F5E022934207F01382A2F58A
:10170000002293427FF450AF244D39F021FE39F08E
:1017100020FE354928683BF052F8244928683BF000
:101720004EF8A288204928683BF049F820492868EB
:101730003BF045F8E2881C4928683BF040F82B490B
:1017400028683BF03CF8227A1C4928683BF037F8BF
:10175000274928683BF033F8627A184928683BF03B
:101760002EF8244928683BF02AF862890E49286837
:101770003BF025F8204928683BF021F8A2890A4966
:1017800028683BF01CF828681049BDE838403BF059
:1017900016B800BFA8002804A8001B00E01A00200B
:1017A00015E3040036E30400A0CD040021E20400A8
:1017B00047E30400C4DA040058E30400ABD9040092
:1017C00062E3040053DB04006CE3040083D90400EB
:1017D000A80027001AE504009FE104004AE5040080
:1017E00054E50400A8002900F0EB04001AEC040002
:1017F0002FEC040044EC040051EC0400A54A934291
:1018000005F0848700F2AE80A2F5A022934205F095
:101810008E8354D8A2F54032934205F06C8002F5D5
:101820008032934205F0AA82A2F5003293427FF4FF
:10183000BBAE994D39F08CFD39F08BFD9749286886
:101840003AF0BDFF964928683AF0B9FFA288954959
:1018500028683AF0B4FF944928683AF0B0FFE2886B
:10186000904928683AF0ABFF904928683AF0A7FF02
:1018700022898C4928683AF0A2FF8D4928683AF0FD
:101880009EFF6289874928683AF099FF894928684C
:101890003AF095FF227B884928683AF090FF874903
:1018A00028683AF08CFFB4F80D207E4928683AF099
:1018B00086FF28688249BDE838403AF080BF814AF7
:1018C000934205F0998502F58032934205F0D9855F
:1018D000A2F5003293427FF467AE6F4D39F038FDC8
:1018E00039F037FD784928683AF069FF7749286868
:1018F0003AF065FFA2886B4928683AF060FF6A49B0
:1019000028683AF05CFFE288664928683AF057FF99
:10191000664928683AF053FF2289624928683AF0FC
:101920004EFF634928683AF04AFF62895D4928689A
:101930003AF045FF664928683AF041FF227B5E494C
:1019400028683AF03CFF634928683AF038FF627B28
:10195000594928683AF033FF28685949BDE83840AA
:101960003AF02DBF5C4A934206F0C6805DD8A2F5DE
:101970008022934206F0B28202F58032934205F053
:101980005F87A2F5003293427FF40EAE424D39F0EC
:10199000DFFC39F0DEFC514928683AF010FF42497B
:1019A00028683AF00CFFA2883E4928683AF007FF01
:1019B0004B4928683AF003FFA01D0821FFF768FD96
:1019C000484928683AF0FBFEA27B3B4928683AF078
:1019D000F6FE454928683AF0F2FEE27B364928686F
:1019E0003AF0EDFE414928683AF0E9FE227C32499E
:1019F00028683AF0E4FE3E4928683AF0E0FED4F860
:101A000011203C4928683AF0DAFE3B4928683AF050
:101A1000D6FEB4F91520394928683AF0D0FE286876
:101A20002749BDE838403AF0CABE354A934206F02D
:101A30005E8302F5003293427FF4B6AD164D39F065
:101A400087FC39F086FC2F4928683AF0B8FE164921
:101A500028683AF0B4FEA288124928683AF0AFFE2E
:101A6000294928683AF0ABFEA279134928683AF070
:101A7000A6FE264928683AF0A2FEB4F807200949D4
:101A800028683AF09CFE28680D49BDE838403AF0D5
:101A900096BE00BFA8005100E01A00204CF10400DF
:101AA00047E30400A0CD040021E2040036E3040073
:101AB000B6E204006FE40400ABD90400CAF00400ED
:101AC00083D90400A8004E00B7F5040084E20400A6
:101AD000D3F50400E0F50400A800570012FB040051
:101AE00030FB04003EFB04004AFB040058FB0400EA
:101AF00069FB040079FB04007DFB040063D604004D
:101B0000A8005800CB040500CADB0400E7FE04006F
:101B1000A04A934207F0398000F20881A2F58812AA
:101B2000934203F092837FD8A2F5E022934203F020
:101B3000F18041D8A2F58022934202F0688202F53A
:101B40008032934202F02E86A2F5A01293427FF4D7
:101B50002BAD914D39F0FCFB39F0FBFB8F49286828
:101B60003AF02DFE8E4928683AF029FEA2888D4968
:101B700028683AF024FE8C4928683AF020FEA279C1
:101B80008A4928683AF01BFE894928683AF017FE0E
:101B9000E279864928683AF012FE864928683AF0C8
:101BA0000EFEA268844928683AF009FE2868834935
:101BB000BDE838403AF003BE814A934203F09F816A
:101BC00002F58032934203F0F781A2F5003293428E
:101BD0007FF4EAAC704D39F0BBFB39F0BAFB7949C0
:101BE00028683AF0ECFD784928683AF0E8FDA288C8
:101BF0006C4928683AF0E3FD744928683AF0DFFD43
:101C0000E288684928683AF0DAFD714928683AF0B4
:101C1000D6FD227A654928683AF0D1FD28686749DF
:101C2000BDE838403AF0CBBD6A4A934203F0CB841A
:101C30002FD8A2F58022934203F0208402F580324F
:101C4000934203F07E84A2F5003293427FF4ACAC61
:101C5000514D39F07DFB39F07CFB5F4928683AF043
:101C6000AEFD5E4928683AF0AAFDA2884D49286871
:101C70003AF0A5FD5A4928683AF0A1FDA2794B49EE
:101C800028683AF09CFD28684C49BDE838403AF095
:101C900096BD544A934204F0E88002F580329342A4
:101CA0007FF482AC3C4D39F053FB39F052FB4E4986
:101CB00028683AF084FD4D4928683AF080FDA288F2
:101CC000384928683AF07BFD494928683AF077FDA1
:101CD000E288344928683AF072FD464928683AF0AB
:101CE0006EFD08216018FFF7D3FB434928683AF0DE
:101CF00066FD228A2B4928683AF061FD3F49286831
:101D00003AF05DFD628A274928683AF058FD3C495F
:101D100028683AF054FDA28A224928683AF04FFD1B
:101D200028682649BDE838403AF049BD354A934213
:101D300005F0018400F2B680A2F5C022934204F0BF
:101D40001F8665D8A2F50032934204F0548302F551
:101D50008032934204F08584A2F5B81293427FF456
:101D600023AC0D4D39F0F4FA39F0F3FA264928681E
:101D70003AF025FD254928683AF021FD22790B49E2
:101D800028683AF01CFD28680C49BDE838403AF054
:101D900016BD00BFA8003001E01A0020A7E1040032
:101DA000CBE10400A0CD0400D4E10400ABD90400D1
:101DB000DDE10400E6E10400C7D9040083D9040092
:101DC000A8001A01F5E20400C4DA040065E1040089
:101DD000D2E20400A80027015EE50400B2D90400A5
:101DE00089E50400A8002801C1EF040021E20400F5
:101DF00036E3040037ED0400F6ED040081EF040043
:101E000005EE0400A8004F018B040500BE04050088
:101E10008A4A934205F0C78002F58032934205F06A
:101E20008081A2F5403293427FF4BEAB844D39F0FD
:101E30008FFA39F08EFA834928683AF0C0FC82495B
:101E400028683AF0BCFCA288804928683AF0B7FCC0
:101E50007F4928683AF0B3FCE2887C4928683AF068
:101E6000AEFC7C4928683AF0AAFC227A7A492868B4
:101E70003AF0A5FC794928683AF0A1FC627A7649E3
:101E800028683AF09CFC764928683AF098FCA17AD8
:101E900004F10B00FFF714FB28687249BDE83840D5
:101EA0003AF08DBC704A934206F0838041D8A2F587
:101EB0000032934205F0668402F58032934205F0C9
:101EC0004C87A2F5003293427FF46EAB5C4D39F043
:101ED0003FFA39F03EFA654928683AF070FC6449E7
:101EE00028683AF06CFCA288584928683AF067FCE8
:101EF000554928683AF063FCE288544928683AF06A
:101F00005EFC5C4928683AF05AFC22894F492868EF
:101F10003AF055FC584928683AF051FC62894B491F
:101F200028683AF04CFC28684E49BDE838403AF041
:101F300046BC524A934205F0E18402F58032934256
:101F40007FF432AB3E4D39F003FA39F002FA4C49D6
:101F500028683AF034FC3C4928683AF030FCA28802
:101F60003A4928683AF02BFC3A4928683AF027FCAD
:101F7000A279394928683AF022FC424928683AF0A7
:101F80001EFCE279344928683AF019FC3E49286879
:101F90003AF015FC22892D4928683AF010FC3B499B
:101FA00028683AF00CFCA27A2B4928683AF007FC22
:101FB000374928683AF003FCE27A274928683AF062
:101FC000FEFB344928683AF0FAFB227B2249286854
:101FD0003AF0F5FB304928683AF0F1FB627B1E4984
:101FE00028683AF0ECFB2D4928683AF0E8FBA27B20
:101FF000194928683AF0E3FB294928683AF0DFFBE1
:10200000E27B154928683AF0DAFB264928683AF05D
:10201000D6FB2269244928683AF0D1FB2349286875
:102020003AF0CDFBA28A094928683AF0C8FB286833
:102030000C49BDE838403AF0C2BB00BFA8004C01D3
:10204000E01A0020FCF3040021E20400A0CD04000B
:1020500047E3040006DB0400ABD904009FE1040061
:1020600029F4040083D90400A8005301EFF7040009
:1020700084E2040036E30400B6E20400A800540140
:102080009BF9040047F904004EF9040056F90400D6
:102090005CF9040063F904006CF9040075F90400AC
:1020A00083F9040005E50400C7D904008CF9040095
:1020B000AE4A934206F0738700F22083A2F57C12A9
:1020C000934203F0FC8100F29381A2F5380293421F
:1020D00007F0EF8100F2A680A2F5E022934207F01C
:1020E0003F805CD8A2F50032934206F0F58602F5F7
:1020F0008032934206F0E487A2F5102293427FF4E7
:1021000053AA9B4D39F024F939F023F999492868ED
:102110003AF055FB984928683AF051FBA288974954
:1021200028683AF04CFB964928683AF048FBE28868
:10213000924928683AF043FB924928683AF03FFBFD
:10214000227A914928683AF03AFB904928683AF097
:1021500036FB627A8C4928683AF031FB8C49286852
:102160003AF02DFBA27A884928683AF028FB894981
:1021700028683AF024FBE27A834928683AF01FFB8A
:10218000854928683AF01BFB227B7F4928683AF092
:1021900016FB28688149BDE838403AF010BB804AF8
:1021A000934207F0BD8002F58032934207F01A8116
:1021B000A2F5403293427FF4F7A96D4D39F0C8F88B
:1021C00039F0C7F8774928683AF0F9FA764928686B
:1021D0003AF0F5FA6268754928683AF0F0FA7449FD
:1021E00028683AF0ECFA227A674928683AF0E7FA68
:1021F000704928683AF0E3FAB4F809205F49286882
:102200003AF0DDFA6C4928683AF0D9FAB4F80B20B4
:102210005A4928683AF0D3FA28686049BDE838403E
:102220003AF0CDBA654A934202F0958553D8A2F5AB
:102230008022934201F00D8702F58032934202F032
:102240001983A2F5A01293427FF4AEA9484D39F04C
:102250007FF839F07EF85A4928683AF0B0FA5949BF
:1022600028683AF0ACFAA288444928683AF0A7FAFC
:10227000554928683AF0A3FAA279434928683AF008
:102280009EFA3D4928683AF09AFAE2793E49286870
:102290003AF095FA4D4928683AF091FA228937497F
:1022A00028683AF08CFA4A4928683AF088FA628934
:1022B000324928683AF083FA464928683AF07FFAAA
:1022C000A2892E4928683AF07AFA28683349BDE88D
:1022D00038403AF074BA404A934202F0F28702F56D
:1022E0004032934203F02980A2F5002293427FF40A
:1022F0005BA91F4D39F02CF839F02BF837492868C5
:102300003AF05DFA364928683AF059FAA2881B4932
:1023100028683AF054FA184928683AF050FAE288E6
:10232000164928683AF04BFA2E4928683AF047FADD
:102330002289124928683AF042FA2B4928683AF073
:102340003EFA62890D4928683AF039FA2749286827
:102350003AF035FA227B0C4928683AF030FA2868BE
:102360000E49BDE838403AF02ABA00BFA800620220
:10237000E01A0020F904050021E20400A0CD0400C9
:10238000B2D904001AFF0400ABD9040029FF0400ED
:1023900039FF040046FF04009BF4040083D90400C5
:1023A000A8006801DF07050065E10400C7D9040043
:1023B000FB07050035EE040009080500A800180217
:1023C000FAE10400CBE10400D4E1040053DB040093
:1023D0005FDB040023DA0400A8001F02A6E3040068
:1023E00036E3040047E30400C4DA0400D1E3040048
:1023F000A44A934204F0D18600F29380A2F5A02271
:10240000934204F08F812FD8A2F5C012934206F0B8
:10241000018402F5B812934204F03380A2F5001251
:1024200093427FF4C1A8984D38F092FF38F091FFA5
:10243000964928683AF0C3F9954928683AF0BFF9F7
:102440006268944928683AF0BAF9934928683AF0E2
:10245000B6F9217A04F10900FFF732F828688F49AC
:10246000BDE838403AF0ABB98D4A934204F0C284DB
:1024700002F50032934204F00586A2F54032934201
:102480007FF492A8804D38F063FF38F062FF8549F1
:1024900028683AF094F9844928683AF090F9A288BB
:1024A000824928683AF08BF9814928683AF087F91F
:1024B000E2887E4928683AF082F97E4928683AF035
:1024C0007EF92289794928683AF079F97A492868A9
:1024D0003AF075F96289754928683AF070F97749D8
:1024E00028683AF06CF9227B754928683AF067F958
:1024F000744928683AF063F9B4F80D206B492868EC
:102500003AF05DF9704928683AF059F9E17B04F135
:102510001000FEF7D5FF28686049BDE838403AF062
:102520004EB96A4A934205F0948541D8A2F500322B
:10253000934205F0638102F58032934205F04284B4
:10254000A2F5003293427FF42FA84F4D38F000FFE0
:1025500038F0FFFE5E4928683AF031F95D49286895
:102560003AF02DF9A288514928683AF028F95049E3
:1025700028683AF024F9E2884C4928683AF01FF9B3
:10258000494928683AF01BF92289484928683AF0F5
:1025900016F9494928683AF012F9628943492868CE
:1025A0003AF00DF928683D49BDE838403AF007B9DE
:1025B000494A934205F0398202F5403293427EF453
:1025C000F3AF314D38F0C4FE38F0C3FE43492868FC
:1025D0003AF0F5F8364928683AF0F1F8A28833491C
:1025E00028683AF0ECF8304928683AF0E8F8E288D0
:1025F0002E4928683AF0E3F8394928683AF0DFF8BC
:1026000022892A4928683AF0DAF8364928683AF0E7
:10261000D6F804F10A001021FEF73AFF3249286883
:102620003AF0CDF8A27E264928683AF0C8F82F493A
:1026300028683AF0C4F8E27E214928683AF0BFF8E9
:102640002B4928683AF0BBF8A28B184928683AF061
:10265000B6F8284928683AF0B2F8E28B134928689E
:102660003AF0ADF8244928683AF0A9F894F8202007
:10267000134928683AF0A3F828680849BDE83840AB
:102680003AF09DB8A8004D02E01A00202DE70400A2
:1026900065E10400C7D904004CE7040083D90400B5
:1026A000A8004A02E6F2040036E30400A0CD0400CC
:1026B00021E2040047E30400B6E204006FE40400F2
:1026C000ABD90400CAF0040009F30400A8005302C7
:1026D00005F8040084E20400A800550290FD0400FF
:1026E000B3FD0400C3FD04008EE80400D5FD040022
:1026F00002FB0400E9FD0400B1EF0400934A934299
:1027000004F0B68100F25E81A2F51C12934202F041
:102710005B8600F28B80A2F53702934206F0FF86BB
:102720004BD8A2F5E022934206F04E8502F5003226
:10273000934206F0B285A2F5403293427EF434AF64
:10274000834D38F005FE38F004FE824928683AF0DF
:1027500036F8814928683AF032F822797F492868AA
:102760003AF02DF87E4928683AF029F862797B49D9
:1027700028683AF024F87B4928683AF020F8D4F821
:102780000620794928683AF01AF8784928683AF01A
:1027900016F8A27A714928683AF011F87449286845
:1027A0003AF00DF8E27A6D4928683AF008F828689E
:1027B0007049BDE838403AF002B86F4A934201F0E0
:1027C000698402F58032934202F07480A2F5A0126F
:1027D00093427EF4E9AE5E4D38F0BAFD38F0B9FDB3
:1027E0006649286839F0EBFF6549286839F0E7FF4A
:1027F000A2886449286839F0E2FF6349286839F003
:10280000DEFFA2795549286839F0D9FF5F49286869
:1028100039F0D5FFB4F807205A49286839F0CFFFBE
:1028200028685449BDE8384039F0C9BF584A934236
:1028300006F02E8230D8A2F50022934203F0C48322
:1028400002F58032934203F08F85A2F50032934265
:102850007EF4AAAE3E4D38F07BFD38F07AFD4D494E
:10286000286839F0ACFF4C49286839F0A8FFA288E5
:102870004449286839F0A3FF4849286839F09FFF88
:10288000D4F806203849286839F099FF2868394972
:10289000BDE8384039F093BF414A934203F0708657
:1028A00002F5803293427EF47FAE294D38F050FD20
:1028B00038F04FFD3B49286839F081FF3A492868D4
:1028C00039F07DFFA2882F49286839F078FF374911
:1028D000286839F074FFE2882A49286839F06FFFC8
:1028E0003349286839F06BFF22892649286839F076
:1028F00066FF3049286839F062FF628921492868FB
:1029000039F05DFF2C49286839F059FF227B1349C3
:10291000286839F054FF2949286839F050FFB4F885
:102920000D201849286839F04AFF2549286839F0F0
:1029300046FFB4F80F201349286839F040FF286893
:102940000C49BDE8384039F03ABF00BFA800490340
:10295000E01A002020070500A4060500ABD90400FA
:10296000B9060500CF060500C7D90400A405050077
:10297000E106050083D90400A80014032EE2040038
:10298000CBE10400A0CD0400D4E104005BE204002C
:10299000A80030035DE70400C4DA040065E1040028
:1029A000A8004703FDF1040047E3040021E204000E
:1029B00036E30400B6E204006FE40400CAF0040049
:1029C0002AF204008E4A934205F02A8400F2A48081
:1029D000A2F5C022934205F02A8253D8A2F5A02284
:1029E000934204F0208402F54032934204F0F285D1
:1029F000A2F5802293427EF4D7AD824D38F0A8FC38
:102A000038F0A7FC8049286839F0D9FE7F4928684A
:102A100039F0D5FEA2887E49286839F0D0FE7D497C
:102A2000286839F0CCFEE2887949286839F0C7FE79
:102A30007949286839F0C3FE22897549286839F038
:102A4000BEFE7649286839F0BAFE62897049286866
:102A500039F0B5FE7249286839F0B1FEA2896C4997
:102A6000286839F0ACFE6F49286839F0A8FEA17BD0
:102A700004F10F00FEF724FD28686B49BDE83840DB
:102A800039F09DBE694A934204F0FA8702F500329C
:102A9000934205F09980A2F5802293427EF484ADA2
:102AA000584D38F055FC38F054FC6149286839F02D
:102AB00086FE6049286839F082FEA2885449286859
:102AC00039F07DFE5349286839F079FEE288504993
:102AD000286839F074FE5049286839F070FE228960
:102AE0004B49286839F06BFE4C49286839F067FE7D
:102AF00062894749286839F062FE4F49286839F0F1
:102B00005EFE227B4D49286839F059FE2868464907
:102B1000BDE8384039F053BE494A934201F0E4829F
:102B200042D8A2F53002934206F0798302F50032D2
:102B3000934206F0D383A2F5502293427EF434AD43
:102B4000304D38F005FC38F004FC3E49286839F077
:102B500036FE3049286839F032FEA2882C492868B0
:102B600039F02DFE2C49286839F029FEE2882849E1
:102B7000286839F024FE3449286839F020FE227A8A
:102B80002E49286839F01BFE3049286839F017FEB5
:102B9000B4F809201E49286839F011FE2868224936
:102BA000BDE8384039F00BBE294A934202F0368422
:102BB00002F5A02293427EF4F7AC124D38F0C8FB28
:102BC00038F0C7FB2349286839F0F9FD2249286805
:102BD00039F0F5FDA2880E49286839F0F0FD1F494B
:102BE000286839F0ECFDD4F806201D49286839F032
:102BF000E6FD28680C49BDE8384039F0E0BD00BF6B
:102C0000A8005803E01A002087F5040084E20400BD
:102C1000A0CD040021E2040047E30400B6E2040072
:102C2000CAF00400A6F5040083D90400A8005503E7
:102C3000FEFC040036E304008DFC0400ABD9040064
:102C4000A8001404C0000500D4E10400E50005005C
:102C5000A800220480E70400C4DA040065E104004F
:102C6000C7D904009A4A934201F02C8300F23C85B4
:102C700002F17B4202F58A02934205F0E38500F2FD
:102C8000DF82A2F18672934204F0098300F29B81F5
:102C9000A2F57502934205F0E48200F29A80A2F553
:102CA0007022934203F03D8749D8A2F50032934247
:102CB00003F0B58402F58032934203F0A185A2F5BA
:102CC000F81293427EF470AC824D38F041FB38F03C
:102CD00040FB8149286839F072FD8049286839F045
:102CE0006EFDA2887E49286839F069FD7D49286813
:102CF00039F065FDE2887A49286839F060FD7A4943
:102D0000286839F05CFD08216018FEF7C1FB77499F
:102D1000286839F054FD228A7149286839F04FFD3E
:102D20007349286839F04BFD628A6D49286839F08B
:102D300046FD28686F49BDE8384039F040BD6E4A0D
:102D4000934204F0C18402F5E022934204F07787B5
:102D5000A2F5202293427EF427AC5E4D38F0F8FABB
:102D600038F0F7FA6549286839F029FD6449286880
:102D700039F025FDA2885A49286839F020FD5749C5
:102D8000286839F01CFDE2885549286839F017FD9C
:102D90005C49286839F013FD22895149286839F0C7
:102DA0000EFD5949286839F00AFD62894C492868A6
:102DB00039F005FD5549286839F001FDE2685449AC
:102DC000286839F0FCFC28684A49BDE8384039F0E9
:102DD000F6BC504A934203F0A08000F2B380A2F503
:102DE000A012934201F0A98102F59812934202F0D9
:102DF0000C84A2F54E0293427EF4D6AB354D38F0EA
:102E0000A7FA38F0A6FA4449286839F0D8FC3349C3
:102E1000286839F0D4FCA2883149286839F0CFFC01
:102E20003E49286839F0CBFCE2882D49286839F002
:102E3000C6FC3B49286839F0C2FC22892849286829
:102E400039F0BDFC3749286839F0B9FC628924495A
:102E5000286839F0B4FC3449286839F0B0FCA289FC
:102E60001F49286839F0ABFC3049286839F0A7FCC5
:102E7000A27B2F49286839F0A2FC2E49286839F036
:102E80009EFCE27B2A49286839F099FC2A49286887
:102E900039F095FC227C2649286839F090FC2749B6
:102EA000286839F08CFC627C2149286839F087FC5D
:102EB0002349286839F083FCA27C1D49286839F031
:102EC0007EFC28680B49BDE8384039F078BC00BF6B
:102ED000A800140BE01A002011F0040021E2040005
:102EE000A0CD040036E3040037ED0400F6ED040045
:102EF00005EE040083D90400A800500491F60400F4
:102F000084E204009AE20400B6E20400BAF6040087
:102F1000C7D90400A8002805F700050047E304000E
:102F200006DB0400E5000500B2D9040024E004003B
:102F3000ABD9040029FF04001A01050046FF040074
:102F40009BF40400A04A934203F0B38402F580325C
:102F5000934203F02B86A2F5C81293427EF424AB71
:102F60009A4D38F0F5F938F0F4F99949286839F0B4
:102F700026FC9849286839F022FCA28896492868DE
:102F800039F01DFC9549286839F019FCE28892490E
:102F9000286839F014FC9249286839F010FC227A2C
:102FA0009049286839F00BFC8F49286839F007FCF4
:102FB000627A8C49286839F002FC28688B49BDE8A0
:102FC000384039F0FCBB8A4A934203F0308051D834
:102FD000A2F54F02934205F0F98325D8A2F50032FD
:102FE000934204F0448602F58032934205F05A8100
:102FF000A2F5002293427EF4D7AA744D38F0A8F9C6
:1030000038F0A7F97B49286839F0D9FB7A49286854
:1030100039F0D5FB2179601DFEF752FA2868734913
:10302000BDE8384039F0CBBB744A934201F092843A
:1030300002F59012934202F00983A2F5981293428E
:103040007EF4B2AA614D38F083F938F082F96C4908
:10305000286839F0B4FB5F49286839F0B0FBA288D2
:103060005D49286839F0ABFB28686049BDE8384005
:1030700039F0A5BB634A934204F032815FD8A2F5D0
:10308000E812934205F08A8602F5C812934203F0D3
:10309000DC85A2F5001293427EF486AA4B4D38F0EF
:1030A00057F938F056F95849286839F088FB5749DC
:1030B000286839F084FBA2884749286839F07FFBEB
:1030C0005349286839F07BFBA2794649286839F0D2
:1030D00076FB5049286839F072FBE01D0821FEF7A5
:1030E000D7F94D49286839F06AFBD4F80F204B49CD
:1030F000286839F064FB4A49286839F060FBB4F865
:1031000013203549286839F05AFB4649286839F0B8
:1031100056FBD4F815204149286839F050FB424944
:10312000286839F04CFBB4F819202B49286839F08D
:1031300046FB28682D49BDE8384039F040BB3B4A82
:10314000934204F0B58502F5803293427EF42CAAB6
:103150001E4D38F0FDF838F0FCF83549286839F094
:103160002EFB2A49286839F02AFBA2881A492868C8
:1031700039F025FB2F49286839F021FBE2881649F0
:10318000286839F01CFB2C49286839F018FBA26824
:103190002249286839F013FB1E49286839F00FFBD3
:1031A00004F10C000821FEF773F92449286839F06E
:1031B00006FB217D04F11500FEF782F928680B4912
:1031C000BDE8384039F0FBBAA8004805E01A0020F5
:1031D00001040500C4DA0400A0CD0400CBE1040022
:1031E000D4E10400ABD90400CADB040083D9040095
:1031F000A800280668F8040089F80400A80015064D
:10320000A5DA0400A8004D0657EF040021E20400EF
:1032100075EF040037ED040041ED0400C7D9040048
:10322000F6ED040005EE040081EF0400A800570647
:103230006BFE040036E3040090FE040097FE0400D9
:10324000964A934205F0588000F2608102F17E4276
:1032500002F57F02934204F04C8563D8A2F53C123C
:10326000934202F00E8726D8A2F59812934201F0FD
:10327000888302F59012934202F03A82A2F59812E6
:1032800093427EF491A9864D38F062F838F061F8E7
:103290008449286839F093FA8349286839F08FFA0D
:1032A000A2888249286839F08AFA28688049BDE8EE
:1032B000384039F084BA7F4A934203F0158502F50D
:1032C0008022934204F06E80A2F5101293427EF4A5
:1032D0006BA9734D38F03CF838F03BF87649286814
:1032E00039F06DFA7549286839F069FAA2886F4992
:1032F000286839F064FA7249286839F060FAE2887F
:103300006A49286839F05BFA6E49286839F057FA3B
:1033100008216018FEF7BCF828686549BDE8384008
:1033200039F04DBA684A934202F0048200F2838079
:10333000A2F59812934200F0638702F5803293421F
:1033400001F05183A2F53C0293427EF42DA9544D25
:1033500037F0FEFF37F0FDFF5C49286839F02FFA9F
:103360005649286839F02BFAA2885049286839F064
:1033700026FA5749286839F022FAE2884B4928682A
:1033800039F01DFA5349286839F019FA227A52495E
:10339000286839F014FA5149286839F010FA627A2D
:1033A0004D49286839F00BFA4D49286839F007FA79
:1033B00062893E49286839F002FA4A49286839F09A
:1033C000FEF9A2893949286839F0F9F9464928688F
:1033D00039F0F5F9A27B4049286839F0F0F9434902
:1033E000286839F0ECF9B4F80F203049286839F032
:1033F000E6F93F49286839F0E2F9627C36492868E5
:1034000039F0DDF93B49286839F0D9F9A27C324915
:10341000286839F0D4F93849286839F0D0F9B4F877
:1034200013202249286839F0CAF928682049BDE8E4
:10343000384039F0C4B9314A934202F0778602F538
:10344000803293427EF4B0A8154D37F081FF37F0FB
:1034500080FF2B49286839F0B2F91849286839F0FB
:10346000AEF9A2881149286839F0A9F925492868D8
:1034700039F0A5F9E2880D49286839F0A0F9224908
:10348000286839F09CF9217A04F10900FEF718F850
:1034900028680749BDE8384039F091B9A8005808B4
:1034A000E01A0020CDDA0400C4DA0400A0CD040044
:1034B00083D90400A800490730F0040021E2040089
:1034C00036E3040037ED0400A80027081E020500BB
:1034D00047E30400D4E10400ABD9040024E0040075
:1034E000B3FD0400B6E2040089F40400E9FD040021
:1034F000B1EF0400D5FD040002FB0400A800280879
:1035000050F0040081F0040098F00400B34A9342A4
:1035100005F0C18400F29380A2F59802934201F075
:1035200094825CD8A2F53402934205F08A8402F5B5
:103530003302934200F09086A2F53B0293427EF460
:1035400033A8A74D37F004FF37F003FFA5492868DB
:1035500039F035F9A449286839F031F9A288A3492E
:10356000286839F02CF9A249286839F028F9E2884E
:103570009E49286839F023F99E49286839F01FF9D7
:10358000227A9D49286839F01AF99C49286839F04F
:1035900016F9627A9849286839F011F9984928682B
:1035A00039F00DF9A27A9449286839F008F995495B
:1035B000286839F004F9E27A8F49286839F0FFF871
:1035C0009149286839F0FBF8217B04F10D00FDF7E3
:1035D00077FF28688D49BDE8384039F0F0B88C4A4B
:1035E000934202F0BB8502F54412934205F08A81B2
:1035F000A2F5481293427DF4D7AF794D37F0A8FE7B
:1036000037F0A7FE8349286839F0D9F8824928683D
:1036100039F0D5F8A2887549286839F0D0F87F4983
:10362000286839F0CCF8D4F806207D49286839F0AC
:10363000C6F828687549BDE8384039F0C0B8794AFD
:10364000934203F0388412D8A2F50C12934202F090
:10365000928002F58032934202F0AA85A2F5A01270
:1036600093427DF4A1AFBDE83840FDF749BF6E4AF3
:10367000934205F08E8102F5002293427DF494AFCF
:10368000574D37F065FE37F064FE6849286839F019
:1036900096F85549286839F092F8A2885349286865
:1036A00039F08DF86249286839F089F8D4F8062095
:1036B0005B49286839F083F85E49286839F07FF85B
:1036C00004F10A000821FDF7E3FE4F49286839F0AC
:1036D00076F8A17C04F11300FDF7F2FE28684B494F
:1036E000BDE8384039F06BB8534A934204F09E87E6
:1036F00000F24A8202F17B42934204F0978600F284
:10370000028102F17E42934204F0428600F2A080E0
:10371000A2F57F02934205F0AD8130D8A2F54412A4
:10372000934202F05D8502F54012934204F0058653
:10373000A2F5441293427DF437AF294D37F008FECD
:1037400037F007FE3D49286839F039F832492868D2
:1037500039F035F8A2882549286839F030F82F4922
:10376000286839F02CF8D4F806202D49286839F05B
:1037700026F828682549BDE8384039F020B8304A95
:10378000934202F05A8002F58032934202F0A48400
:10379000A2F5A01293427DF407AF114D37F0D8FD8A
:1037A00037F0D7FD2749286839F009F826492868F5
:1037B00039F005F862681A49286839F000F8234999
:1037C000286838F0FCFF227A0B49286838F0F7FFA8
:1037D00028680E49BDE8384038F0F1BFA8006109FB
:1037E000E01A00204602050021E20400A0CD0400FA
:1037F00047E30400D4E10400ABD9040024E0040052
:10380000FFDA040046FF040097FE040083D9040099
:10381000A800280937E80400C4DA040065E10400C0
:10382000C7D90400A8004A0AA800590A5C05050087
:1038300090FE040037ED0400A8005813CCE8040003
:10384000A800270CA9DB0400BCD90400CADB0400D3
:10385000AF4A934202F0F7841DD8A2F59812934222
:1038600001F01C8102F59012934202F00780A2F54C
:10387000981293427DF498AEA64C37F069FD37F06C
:1038800068FDA549206838F09AFF2068A349BDE883
:10389000384038F094BFA24A934200F0348502F5D4
:1038A0009812934202F00C80A2F54F0293427DF4ED
:1038B0007BAE984D37F04CFD37F04BFD99492868A9
:1038C00038F07DFF9849286838F079FFA288974939
:1038D000286838F074FF9649286838F070FFE2884D
:1038E0009249286838F06BFF9249286838F067FFE2
:1038F000217A04F10900FDF7E3FD28688749BDE856
:10390000384038F05CBF8C4A934202F0C1807BD8CB
:1039100002F17E4202F56D02934200F020853AD812
:10392000A2F56D02934202F05B8002F544129342CD
:1039300004F0EC85A2F5880293427DF435AE754D16
:1039400037F006FD37F005FD7C49286838F037FF71
:103950007B49286838F033FF22797A49286838F0A3
:103960002EFF7949286838F02AFFB4F805206F49FE
:10397000286838F024FF7549286838F020FFB4F82B
:1039800007206A49286838F01AFF28686349BDE8AB
:10399000384038F014BF6E4A934204F0F38502F5C4
:1039A0003C02934200F00585A2F56D0293427DF43E
:1039B000FBAD584D37F0CCFC37F0CBFC654928689F
:1039C00038F0FDFE6449286838F0F9FEA2885749AE
:1039D000286838F0F4FE6149286838F0F0FED4F821
:1039E00006205F49286838F0EAFE5E49286838F00A
:1039F000E6FEA27A5349286838F0E1FE2868474974
:103A0000BDE8384038F0DBBE574A934204F0E48505
:103A100038D8A2F58802934200F0F58402F5981296
:103A2000934202F06080A2F54F0293427DF4BCAD58
:103A3000384D37F08DFC37F08CFC4C49286838F055
:103A4000BEFE3949286838F0BAFEA288374928688E
:103A500038F0B5FE3649286838F0B1FEE2883349BF
:103A6000286838F0ACFE4249286838F0A8FE217A70
:103A700004F10900FDF724FD28682849BDE8384015
:103A800038F09DBE3B4A934200F0DE8402F5981266
:103A900093427DF489AD1F4D37F05AFC37F059FC45
:103AA0003549286838F08BFE2B49286838F087FEA6
:103AB000A2881E49286838F082FE2849286838F014
:103AC0007EFED4F806202649286838F078FE2B4977
:103AD000286838F074FEA27A1A49286838F06FFE18
:103AE0002749286838F06BFEE27A1649286838F0D2
:103AF00066FE2449286838F062FEA2890B492868CE
:103B000038F05DFE28680549BDE8384038F057BEFA
:103B1000A800280DE01A0020D2DB040083D904009D
:103B2000A800140E51FF040021E20400A0CD0400FF
:103B300036E3040037FA0400A800271105DC04006E
:103B4000FFDA0400ABD9040006DB0400FAD9040054
:103B5000A8005810C4E90400C4DA040065E10400B8
:103B6000C7D9040023DA0400A8005812F3FF0400A8
:103B700097FE0400A800141330EA040050EA040081
:103B8000A0E80400B3E80400B24A934200F06E8556
:103B900000F2ED8002F17E42934200F0138574D86A
:103BA00002F17F42934200F0BD842ED8A2F57F023D
:103BB000934200F0948702F59012934201F0BE8781
:103BC000A2F5981293427DF4EFACA34D37F0C0FB01
:103BD00037F0BFFBA149286838F0F1FDA0492868FB
:103BE00038F0EDFD22799F49286838F0E8FD9E49BC
:103BF000286838F0E4FD6179A01DFDF761FC2868B4
:103C00009A49BDE8384038F0DABD994A934201F04C
:103C1000CA8702F54412934204F02985A2F5860270
:103C200093427DF4C1AC8C4D37F092FB37F091FBA1
:103C30009049286838F0C3FD8F49286838F0BFFDE7
:103C4000A2888E49286838F0BAFD8D49286838F076
:103C5000B6FDA2798349286838F0B1FD8949286802
:103C600038F0ADFDE01D1021FDF712FC86492868F3
:103C700038F0A5FDE27D7B49286838F0A0FD286872
:103C80007A49BDE8384038F09ABD804A934200F046
:103C9000D5842FD8A2F56D02934201F0AF8702F5CB
:103CA0004412934204F00485A2F5860293427DF407
:103CB0007BAC694D37F04CFB37F04BFB74492868FF
:103CC00038F07DFD6C49286838F079FDA2886B4991
:103CD000286838F074FD6F49286838F070FDE28874
:103CE0006649286838F06BFD28686049BDE83840AF
:103CF00038F065BD684A934200F0F38402F59012F3
:103D000093427DF451AC544D37F022FB37F021FB48
:103D10006249286838F053FD5E49286838F04FFD45
:103D2000A2885649286838F04AFD5D49286838F06D
:103D300046FDD4F806205B49286838F040FD5A4912
:103D4000286838F03CFD62894C49286838F037FD16
:103D50005649286838F033FD227B4249286838F0FC
:103D60002EFD28684149BDE8384038F028BD504A4A
:103D7000934201F0C78700F2A580A2F189729342B5
:103D800000F00C872ED8A2F56E02934201F08E87C8
:103D900002F56D02934200F0DD83A2F57F029342AB
:103DA0007DF402AC2C4D37F0D3FA37F0D2FA41490A
:103DB000286838F004FD3349286838F000FD201DDC
:103DC0001021FDF765FB3C49286838F0F8FC227D9E
:103DD0002449286838F0F3FC28682449BDE83840B5
:103DE00038F0EDBC354A934200F0D48302F58032BE
:103DF000934200F0F386A2F56E0293427DF4D4ABB9
:103E0000154D37F0A5FA37F0A4FA2D49286838F097
:103E1000D6FC2349286838F0D2FC6268214928681A
:103E200038F0CDFC0E49286838F0C9FC227A0D49DB
:103E3000286838F0C4FC0C49286838F0C0FC617A66
:103E400004F10A00FDF73CFB28680849BDE838404A
:103E500038F0B5BCA8001418E01A0020C0DC04003B
:103E6000D9DC0400ABD9040066DA040083D904006D
:103E7000A80027152CE004001EE00400A0CD0400DB
:103E800024E0040041DE04004EE00400A800141702
:103E900058E00400C4DA0400A8001517EFEA040093
:103EA00065E10400C7D90400FAD9040023DA04004C
:103EB000A800271A20DE040048DE0400A800141A17
:103EC00057EB0400AD4A934201F0608726D802F117
:103ED0007F42934201F0388702F56E02934200F070
:103EE0009D8602F17F4293427DF45EABA44D37F094
:103EF0002FFA37F02EFAA349286838F060FCA2495F
:103F0000286838F05CFCA288A049286838F057FC83
:103F100028689F49BDE8384038F051BC9D4A93421B
:103F200000F0A58602F1807293427DF43DAB944D82
:103F300037F00EFA37F00DFA9749286838F03FFC51
:103F40009649286838F03BFC201D1021FDF7A0FAA7
:103F50009349286838F033FC227D9249286838F06C
:103F60002EFC9149286838F02AFC627D8D4928682A
:103F700038F025FC8D49286838F021FCA27D89495C
:103F8000286838F01CFC8A49286838F018FCE27D63
:103F90008449286838F013FC8649286838F00FFCFB
:103FA000227E8049286838F00AFC28687849BDE8F4
:103FB000384038F004BC724D37F0CAF937F0C9F90F
:103FC0007D49286838F0FBFB7C49286838F0F7FB0E
:103FD00022797449286838F0F2FB7949286838F06A
:103FE000EEFBB4F805206949286838F0E8FB75490C
:103FF000286838F0E4FBD4F807207349286838F0C3
:10400000DEFB28686249BDE8384038F0D8BB5C4D1B
:1040100037F09EF937F09DF96C49286838F0CFFBEE
:104020006749286838F0CBFBA2885849286838F0DF
:10403000C6FB6449286838F0C2FBD4F80620624900
:10404000286838F0BCFB28685149BDE8384038F092
:10405000B6BB4B4D37F07CF937F07BF95C492868EB
:1040600038F0ADFB5B49286838F0A9FBA2884749C6
:10407000286838F0A4FB5849286838F0A0FBE2888B
:104080004249286838F09BFB28684149BDE8384020
:1040900038F095BB3A4D37F05BF937F05AF94F4994
:1040A000286838F08CFB4B49286838F088FBA288D8
:1040B0003649286838F083FB4749286838F07FFB89
:1040C000E2883249286838F07AFB4549286838F098
:1040D00076FB217A04F10900FDF7F2F928682C49F2
:1040E000BDE8384038F06BBB254D37F031F937F07B
:1040F00030F93C49286838F062FB3B49286838F0C1
:104100005EFB22792749286838F059FB374928682F
:1041100038F055FB62792349286838F050FB344960
:10412000286838F04CFBA179E01DFDF7C9F9286833
:104130001749BDE8384038F042BB114D37F008F957
:1041400037F007F92B49286838F039FB2A492868E5
:1041500038F035FB22791349286838F030FB2749BD
:10416000286838F02CFB62790E49286838F027FB64
:1041700028680749BDE8384038F021BBA800271C53
:10418000E01A0020BCE00400C4DA0400A0CD040062
:1041900083D90400A800151D3BE1040041DE0400A2
:1041A00062DD0400ABD904006EDD04007BDD040099
:1041B00093DD0400ABDD040087D904009DD9040021
:1041C000B2D90400BCD90400C7D90400CFD9040077
:1041D000E5D90400FAD9040009DA04000EDA040073
:1041E00023DA04002BDA040048DA040058DA040069
:1041F00066DA04006DDA040089DA040098DA040053
:10420000AB4D37F0A5F837F0A4F8AA49286838F084
:10421000D6FAA949286838F0D2FA2279A74928683D
:1042200038F0CDFAA649286838F0C9FAB4F8052064
:10423000A449286838F0C3FAA349286838F0BFFABF
:10424000B4F807209F49286838F0B9FA28689F49D0
:10425000BDE8384038F0B3BA954D37F079F837F00B
:1042600078F89B49286838F0AAFA9A49286838F003
:10427000A6FA22799149286838F0A1FA9649286867
:1042800038F09DFAB4F805208E49286838F097FA7E
:104290009249286838F093FAB4F8072089492868C9
:1042A00038F08DFA8E49286838F089FAB4F8092078
:1042B0008449286838F083FA28688449BDE8384082
:1042C00038F07DBA7A4D37F043F837F042F8854937
:1042D000286838F074FA8449286838F070FA6268FF
:1042E0008249286838F06BFA8149286838F067FA03
:1042F000A2687E49286838F062FA28687349BDE8E8
:10430000384038F05CBA6A4D37F022F837F021F8BF
:104310007849286838F053FA6749286838F04FFA26
:1043200022796649286838F04AFA6549286838F0E1
:1043300046FAB4F805206349286838F040FA624923
:10434000286838F03CFAB4F807205E49286838F04D
:1043500036FA28685D49BDE8384038F030BA544D27
:1043600036F0F6FF36F0F5FF6349286838F027FA93
:104370006249286838F023FAA2885249286838F040
:104380001EFA5F49286838F01AFAE2884D49286811
:1043900038F015FA5B49286838F011FA227A474953
:1043A000286838F00CFA28684849BDE8384038F0E9
:1043B00006BA3F4D36F0CCFF36F0CBFF52492868A5
:1043C00038F0FDF94D49286838F0F9F9A2883D49DF
:1043D000286838F0F4F94A49286838F0F0F9E2889A
:1043E0003849286838F0EBF94849286838F0E7F987
:1043F000A2683E49286838F0E2F928683349BDE8E8
:10440000384038F0DCB92A4D36F0A2FF36F0A1FF73
:104410003F49286838F0D3F93849286838F0CFF98F
:10442000A2882849286838F0CAF93549286838F040
:10443000C6F9E2882349286838F0C1F92868234979
:10444000BDE8384038F0BBB9194D36F081FF36F081
:1044500080FF3049286838F0B2F91B49286838F0E5
:10446000AEF9A2881749286838F0A9F92A492868BE
:1044700038F0A5F9A2791149286838F0A0F9274940
:10448000286838F09CF9E2790C49286838F097F9E7
:104490002349286838F093F9A2681449286838F04D
:1044A0008EF928680949BDE8384038F088B900BF5E
:1044B000E01A0020EBDA0400FFDA0400ABD90400B4
:1044C00006DB0400A0CD0400FAD9040083D904005F
:1044D0000EDB04002DDB040041DB040053DB040091
:1044E0005FDB04006ADB040086DB0400C7D904003C
:1044F00096DB0400EFDB04001BDC04002FDC04006F
:104500003ADC040045DC04004CDC040066DC0400FA
:1045100073DC04008CDC0400A6DC0400B4DC0400C2
:10452000BCD90400AF4D36F013FF36F012FFAE4990
:10453000286838F044F9AD49286838F040F9A28875
:10454000AB49286838F03BF92868AA49BDE83840EB
:1045500038F035B9A34D36F0FBFE36F0FAFEA64929
:10456000286838F02CF9A549286838F028F922790C
:10457000A349286838F023F9A249286838F01FF9C0
:104580006179A01DFCF79CFF28689A49BDE8384076
:1045900038F015B9934D36F0DBFE36F0DAFE9A4965
:1045A000286838F00CF99149286838F008F9A28891
:1045B0008F49286838F003F928688E49BDE83840EB
:1045C00038F0FDB8874D36F0C3FE36F0C2FE8F4995
:1045D000286838F0F4F88E49286838F0F0F8227925
:1045E0008749286838F0EBF88A49286838F0E7F8F6
:1045F00062798349286838F0E2F88749286838F0FA
:10460000DEF8A2797E49286838F0D9F8834928680D
:1046100038F0D5F8E2797A49286838F0D0F880493E
:10462000286838F0CCF8227A7549286838F0C7F83D
:1046300028687049BDE8384038F0C1B8694D36F097
:1046400087FE36F086FE7749286838F0B8F8764954
:10465000286838F0B4F8A2886549286838F0AFF8BF
:1046600028686449BDE8384038F0A9B85D4C36F098
:104670006FFE36F06EFE6D49206838F0A0F82068B5
:104680005C49BDE8384038F09AB8564D36F060FEC7
:1046900036F05FFE6649286838F091F86549286869
:1046A00038F08DF822795649286838F088F8624940
:1046B000286838F084F8B4F805204D49286838F0A7
:1046C0007EF85E49286838F07AF8D4F807205C490B
:1046D000286838F074F828684649BDE8384038F052
:1046E0006EB8404D36F034FE36F033FE554928683A
:1046F00038F065F85449286838F061F8201D102119
:10470000FCF7C6FE5149286838F059F8227D3C492B
:10471000286838F054F84E49286838F050F8B4F852
:1047200015203349286838F04AF84A49286838F093
:1047300046F8E27D3249286838F041F84649286851
:1047400038F03DF8227E2E49286838F038F8434981
:10475000286838F034F8627E2949286838F02FF844
:104760003F49286838F02BF8628B2149286838F0D7
:1047700026F83C49286838F022F8227F204928682A
:1047800038F01DF83849286838F019F8B4F81D20B9
:104790001749286838F013F828681649BDE83840EA
:1047A00038F00DB80F4D36F0D3FD36F0D2FD2F495D
:1047B000286838F004F82E49286838F000F8227983
:1047C0000F49286837F0FBFF1F49286837F0F7FFCB
:1047D000601D1021FCF75CFE28680649BDE83840E2
:1047E00037F0EDBFE01A0020E0DC0400C4DA04007A
:1047F000A0CD040083D90400FDDC0400D9DC040052
:10480000ABD9040066DA040021DD040049DD0400B0
:1048100062DD04006EDD04007BDD040093DD040036
:10482000ABDD0400C1DD0400DBDD0400E9DD0400D4
:10483000FFDD040015DE0400B2D90400BCD9040079
:10484000C7D9040051DE040041DE040068DE040024
:1048500073DE040080DE04008CDE04009EDE0400B3
:10486000AFDE0400C3DE0400D4DE0400E8DE040092
:1048700048DE0400AA4D36F06BFD36F06AFDA9490A
:10488000286837F09CFFA849286837F098FFA2886D
:10489000A649286837F093FFA549286837F08FFFAD
:1048A000A01D1021FCF7F4FD2868A249BDE838409E
:1048B00037F085BF9A4D36F04BFD36F04AFD9E49E4
:1048C000286837F07CFF9D49286837F078FFA28878
:1048D0009649286837F073FF9949286837F06FFFC9
:1048E000D4F806209749286837F069FF9649286868
:1048F00037F065FFA27A9549286837F060FF8A494A
:10490000286837F05CFF04F10B000621FCF7C0FDBE
:104910008F49286837F053FF627C8C49286837F04C
:104920004EFF8349286837F04AFF04F11200102136
:10493000FCF7AEFD8749286837F041FF94F9222043
:104940008549286837F03BFF28687A49BDE8384038
:1049500037F035BF724D36F0FBFC36F0FAFC7F497C
:10496000286837F02CFF7249286837F028FF201D8F
:104970001021FCF78DFD28686E49BDE8384037F0FE
:104980001EBF674D36F0E4FC36F0E3FC744928683E
:1049900037F015FF7349286837F011FF22796B490A
:1049A000286837F00CFF7049286837F008FF6279F3
:1049B0006649286837F003FF6C49286837F0FFFE26
:1049C000A2796249286837F0FAFE5949286837F019
:1049D000F6FEE01D1021FCF75BFD28685549BDE897
:1049E000384037F0ECBE4E4D36F0B2FC36F0B1FC3C
:1049F0005F49286837F0E3FE4D49286837F0DFFE4D
:104A0000201D1021FCF744FD5A49286837F0D7FED5
:104A1000227D4E49286837F0D2FE5749286837F082
:104A2000CEFE627D4949286837F0C9FE534928689F
:104A300037F0C5FEA17D04F11700FCF741FD2868A1
:104A40003C49BDE8384037F0BABE354D36F080FC01
:104A500036F07FFC4A49286837F0B1FE34492868AF
:104A600037F0ADFE201D1021FCF712FD2E492868FD
:104A700037F0A5FEA28A2D49286837F0A0FE4149EB
:104A8000286837F09CFEA27D3049286837F097FEF1
:104A900028682849BDE8384037F091BE204D36F0EF
:104AA00057FC36F056FC3849286837F088FE3749FD
:104AB000286837F084FE62682249286837F07FFE54
:104AC0002E49286837F07BFE217A04F10900FCF7B3
:104AD000F7FC28681749BDE8384037F070BE104D24
:104AE00036F036FC36F035FC2949286837F067FE89
:104AF0002849286837F063FEA2880C49286837F0F7
:104B00005EFE2549286837F05AFEA2790F492868C9
:104B100037F055FE28680749BDE8384037F04FBEEA
:104B2000E01A002006DF0400B2D90400A0CD040082
:104B300041DE040083D9040023DF04003BDF0400CE
:104B40004EDF0400C7D9040059DF0400ABD90400CC
:104B500062DF040071DF040063D6040078DF040024
:104B600093DF0400AEDF040048DA040058DA0400E2
:104B7000B7DF040089DA040098DA040066DA04007A
:104B8000D3DF040068DE0400E6DF0400F4DF040085
:104B9000FBDF04001EE0040024E00400834D36F037
:104BA000D7FB36F0D6FB8249286837F008FE8149EA
:104BB000286837F004FEA2887F49286837F0FFFD97
:104BC0007E49286837F0FBFDA01D1021FCF760FC32
:104BD00028687B49BDE8384037F0F1BD734D36F0A9
:104BE000B7FB36F0B6FB7749286837F0E8FD714926
:104BF000286837F0E4FDA2886F49286837F0DFFDA8
:104C00006E49286837F0DBFDA01D1021FCF740FC41
:104C100028686B49BDE8384037F0D1BD634D36F0A8
:104C200097FB36F096FB6849286837F0C8FD614964
:104C3000286837F0C4FDA2885F49286837F0BFFDB7
:104C40005E49286837F0BBFDA01D1021FCF720FC51
:104C50005E49286837F0B3FDA17D04F11700FCF729
:104C60002FFC28685649BDE8384037F0A8BD4F4DA5
:104C700036F06EFB36F06DFB5549286837F09FFD26
:104C80004C49286837F09BFDA2884B49286837F0CB
:104C900096FD4A49286837F092FDA01D1021FCF7C7
:104CA000F7FB4C49286837F08AFDE28A42492868B8
:104CB00037F085FD4849286837F081FD227E474955
:104CC000286837F07CFD4649286837F078FD617E1A
:104CD00004F11A00FCF7F4FB28683949BDE83840B4
:104CE00037F06DBD314D36F033FB36F032FB3D49C8
:104CF000286837F064FD3C49286837F060FD626839
:104D00003A49286837F05BFD28682D49BDE83840EE
:104D100037F055BD254D36F01BFB36F01AFB3449F4
:104D2000286837F04CFD3049286837F048FD626844
:104D30002E49286837F043FD2E49286837F03FFD9B
:104D400022891D49286837F03AFD28681C49BDE8CA
:104D5000384037F034BD154D36F0FAFA36F0F9FA2E
:104D60002549286837F02BFD1F49286837F027FDB3
:104D700062681E49286837F022FD2049286837F00C
:104D80001EFD227A1549286837F019FD1C4928684C
:104D900037F015FDB4F809200749286837F00FFDF2
:104DA00028680749BDE8384037F009BDE01A0020FF
:104DB00077E00400C4DA0400A0CD040041DE040062
:104DC00083D9040098E00400DCE0040000E1040062
:104DD00007E104002AE1040033E10400ABD9040038
:104DE00066DA040050E1040065E10400C7D904005C
:104DF0006EE1040048DE040086E10400FFDA0400EE
:104E00009FE10400944D36F0A3FA36F0A2FA9349DC
:104E1000286837F0D4FC9249286837F0D0FCA28883
:104E20009049286837F0CBFC8F49286837F0C7FCD9
:104E3000E2888C49286837F0C2FC8C49286837F032
:104E4000BEFC22898749286837F0B9FC8849286860
:104E500037F0B5FC62898349286837F0B0FC854992
:104E6000286837F0ACFCA2897E49286837F0A7FC97
:104E70008149286837F0A3FC94F90E207F492868FF
:104E800037F09DFC7E49286837F099FCB4F80F2074
:104E90007449286837F093FC7A49286837F08FFC0A
:104EA000627C7949286837F08AFC7849286837F0AD
:104EB00086FCA27C7449286837F081FC7449286814
:104EC00037F07DFCE27C7049286837F078FC714946
:104ED000286837F074FC227D6B49286837F06FFC36
:104EE0006D49286837F06BFC617D04F11600FCF712
:104EF000E7FA28686949BDE8384037F060BC564D8C
:104F000036F026FA36F025FA6549286837F057FC5E
:104F10006449286837F053FCA2885249286837F062
:104F20004EFC5149286837F04AFCE2884D49286810
:104F300037F045FC5C49286837F041FC2289494933
:104F4000286837F03CFC5949286837F038FC6289FA
:104F50004449286837F033FC5549286837F02FFC5E
:104F6000227B4949286837F02AFC28684B49BDE86C
:104F7000384037F024BC384D36F0EAF936F0E9F91C
:104F80004C49286837F01BFC3749286837F017FC74
:104F9000A2883449286837F012FC4749286837F05E
:104FA0000EFCA2793849286837F009FC28683B498B
:104FB000BDE8384037F003BC274D36F0C9F936F06C
:104FC000C8F93E49286837F0FAFB3749286837F0B6
:104FD000F6FBA2882349286837F0F1FB22492868AC
:104FE00037F0EDFBE2881F49286837F0E8FB2D49D0
:104FF000286837F0E4FB22891A49286837F0DFFB7C
:105000001F49286837F0DBFB62891649286837F0AA
:10501000D6FB2B49286837F0D2FB227B1A49286837
:1050200037F0CDFB1149286837F0C9FBB4F80D20E3
:105030000C49286837F0C3FB2249286837F0BFFBCA
:10504000E27B1149286837F0BAFB28681349BDE8AC
:10505000384037F0B4BB00BFE01A00206AE2040019
:1050600084E20400A0CD040021E2040053DB04002C
:105070005FDB04009AE20400ABE2040063D60400A4
:10508000B6E20400C5E20400ABD90400D2E2040099
:10509000E2E2040033E10400EBE2040083D90400FF
:1050A00075E3040036E3040047E30400C4DA0400B7
:1050B0009DE30400E1E30400FEE304000AE40400CD
:1050C00062E304002AE40400A84D36F041F936F00A
:1050D00040F9A749286837F072FBA649286837F0DD
:1050E0006EFBA288A449286837F069FBA3492868A9
:1050F00037F065FBE288A049286837F060FBA049DB
:10510000286837F05CFB22899B49286837F057FBF9
:105110009C49286837F053FB62899749286837F023
:105120004EFB9949286837F04AFBE268974928689E
:1051300037F045FB9649286837F041FB228A8E49B3
:10514000286837F03CFB9349286837F038FBA27C8D
:105150009149286837F033FB9049286837F02FFBD6
:10516000E17C04F11400FCF7ABF928688C49BDE838
:10517000384037F024BB7D4D36F0EAF836F0E9F8D8
:105180008849286837F01BFB7E49286837F017FBF1
:10519000A2887949286837F012FB7849286837F0E7
:1051A0000EFBE2887449286837F009FB74492868C7
:1051B00037F005FB22897049286837F000FB6D49FC
:1051C000286837F0FCFA62896B49286837F0F7FAEB
:1051D0007549286837F0F3FAA2896749286837F0DB
:1051E000EEFA7249286837F0EAFAD4F80E206749D7
:1051F000286837F0E4FA6E49286837F0E0FA628AE6
:105200005D49286837F0DBFA6149286837F0D7FA3A
:10521000A28A5949286837F0D2FA5E49286837F0DF
:10522000CEFAA27D5C49286837F0C9FA5B49286844
:1052300037F0C5FAE17D04F11800FCF741F9286860
:105240005749BDE8384037F0BABA484D36F080F8D3
:1052500036F07FF85749286837F0B1FA474928688F
:1052600037F0ADFAA2884449286837F0A8FA4449D3
:10527000286837F0A4FAE2883F49286837F09FFA97
:105280004149286837F09BFAA2684049286837F0FE
:1052900096FA4049286837F092FA227B3E492868FE
:1052A00037F08DFA3D49286837F089FA617B04F1BF
:1052B0000E00FCF705F928683949BDE8384037F099
:1052C0007EBA2A4D36F044F836F043F83A49286859
:1052D00037F075FA2949286837F071FAA28826490B
:1052E000286837F06CFA2649286837F068FAE288AF
:1052F0002149286837F063FA3049286837F05FFAA7
:10530000A2682249286837F05AFA2249286837F0FB
:1053100056FA227B2049286837F051FA1F4928683D
:1053200037F04DFA617B04F10E00FCF7C9F82868EC
:105330001B49BDE8384037F042BA0C4D36F008F84A
:1053400036F007F81E49286837F039FA1D492868F1
:1053500037F035FAA2880849286837F030FA28680B
:105360000F49BDE8384037F02ABA00BFE01A0020E4
:105370003EE4040036E30400A0CD040021E2040072
:105380005FDB040047E3040060E40400C7D90400C5
:105390006FE40400FFDA0400ABD9040077E40400F2
:1053A00083D9040084E40400B6E20400A7E4040006
:1053B000B7E40400C2E40400E4E4040005E50400EA
:1053C00092E50400B2D90400B14D35F0C1FF35F0CB
:1053D000C0FFB049286837F0F2F9AF49286837F0C4
:1053E000EEF9A288AD49286837F0E9F9AC49286898
:1053F00037F0E5F9E288A949286837F0E0F9A949CA
:10540000286837F0DCF92289A449286837F0D7F9F1
:105410002868A549BDE8384037F0D1B99C4C35F033
:1054200097FF35F096FFA149206837F0C8F920684A
:105430009D49BDE8384037F0C2B9954D35F088FF39
:1054400035F087FF9A49286837F0B9F999492868F3
:1054500037F0B5F9A2889149286837F0B0F9964934
:10546000286837F0ACF9E2888C49286837F0A7F94A
:1054700028688D49BDE8384037F0A1B9844D35F032
:1054800067FF35F066FF8D49286837F098F989493C
:10549000286837F094F9A2888049286837F08FF996
:1054A0008749286837F08BF9E2887C49286837F00B
:1054B00086F928687C49BDE8384037F080B9744DDA
:1054C00035F046FF35F045FF7E49286837F077F91B
:1054D0007849286837F073F9A2887049286837F04E
:1054E0006EF97749286837F06AF9E2886B492868CD
:1054F00037F065F928686C49BDE8384037F05FB986
:10550000634D35F025FF35F024FF6F49286837F0EB
:1055100056F96849286837F052F9A2885F49286827
:1055200037F04DF96949286837F049F9E2885B4955
:10553000286837F044F928685B49BDE8384037F0FF
:105540003EB9534D35F004FF35F003FF604928683C
:1055500037F035F95749286837F031F9A2884F49B3
:10556000286837F02CF95949286837F028F9E2887B
:105570004A49286837F023F95149286837F01FF95C
:1055800022894649286837F01AF928684649BDE853
:10559000384037F014B93E4D35F0DAFE35F0D9FE1B
:1055A0004C49286837F00BF94B49286837F007F960
:1055B00062684A49286837F002F928683A49BDE824
:1055C000384037F0FCB8324D35F0C2FE35F0C1FE40
:1055D0004349286837F0F3F82F49286837F0EFF887
:1055E000A2882E49286837F0EAF83B49286837F046
:1055F000E6F8D4F806203949286837F0E0F828683A
:105600002949BDE8384037F0DAB8214D35F0A0FE21
:1056100035F09FFE3349286837F0D1F82E492868C5
:1056200037F0CDF862682D49286837F0C8F82E4960
:10563000286837F0C4F8217A04F10900FBF740FF2D
:1056400028681949BDE8384037F0B9B8104D35F031
:105650007FFE35F07EFE2549286837F0B0F80E4908
:10566000286837F0ACF8A2880C49286837F0A7F80A
:105670001949286837F0A3F8D4F806201749286894
:1056800037F09DF828680849BDE8384037F097B8EA
:10569000E01A0020C1E50400C4DA0400A0CD040033
:1056A000E8E50400F6E5040083D9040004E60400FC
:1056B0002AE60400FAD904004AE604005BE6040086
:1056C00048DE040076E6040095E60400B8E604002F
:1056D000C6E60400E8E6040065E10400C7D904005A
:1056E0000CE70400A1E70400C0E70400D1E70400D0
:1056F000A04D35F02DFE35F02CFE9F49286837F07F
:105700005EF89E49286837F05AF8A2889C492868B4
:1057100037F055F89B49286837F051F8D4F806203F
:105720009949286837F04BF828689849BDE838400F
:1057300037F045B88F4D35F00BFE35F00AFE944931
:10574000286837F03CF88F49286837F038F86268E5
:105750008D49286837F033F88E49286837F02FF8DC
:10576000217A04F10900FBF7ABFE28688749BDE800
:10577000384037F024B87F4D35F0EAFD35F0E9FDCB
:105780008549286837F01BF87C49286837F017F8F6
:10579000A2887B49286837F012F87A49286837F0E0
:1057A0000EF8D4F806207849286837F008F87B49C5
:1057B000286837F004F862897149286836F0FFFFDD
:1057C0007749286836F0FBFFA2896D49286836F0D2
:1057D000F6FF7449286836F0F2FFA27B7249286808
:1057E00036F0EDFF7149286836F0E9FFE27B6E493B
:1057F000286836F0E4FF6E49286836F0E0FF226939
:105800006149286836F0DBFF6A49286836F0D7FF1F
:10581000227D6549286836F0D2FF6749286836F04E
:10582000CEFFB4F815205649286836F0C8FF28681E
:105830005649BDE8384036F0C2BF4E4D35F088FDC0
:1058400035F087FD5D49286836F0B9FF4D49286875
:1058500036F0B5FF62684C49286836F0B0FF584909
:10586000286836F0ACFF217A04F10900FBF728FE26
:1058700028684649BDE8384036F0A1BF3D4D35F0B7
:1058800067FD35F066FD4F49286836F098FF3B49C3
:10589000286836F094FFA2883949286836F08FFFCF
:1058A0003849286836F08BFFD4F806203649286836
:1058B00036F085FF28683549BDE8384036F07FBFAF
:1058C0002C4D35F045FD35F044FD3F49286836F054
:1058D00076FF2A49286836F072FFA288284928688E
:1058E00036F06DFF2749286836F069FFD4F80620A6
:1058F0002549286836F063FF3449286836F05FFF91
:1059000062891F49286836F05AFF3149286836F005
:1059100056FFA2891A49286836F051FF2D49286898
:1059200036F04DFFA27B2049286836F048FF2A490F
:10593000286836F044FFE27B1B49286836F03FFFB9
:105940001A49286836F03BFF227C1749286836F050
:1059500036FF2249286836F032FFB4F81120084992
:10596000286836F02CFF28680849BDE8384036F032
:1059700026BF00BFE01A0020F4E70400C4DA0400E8
:10598000A0CD040065E10400C7D9040083D9040058
:1059900016E80400C0E704005CE80400B2D9040083
:1059A000B6E2040080E80400ABD904008EE80400ED
:1059B00094E80400A0E80400B3E80400F0E8040060
:1059C0000DE9040019E904003AE9040084E2040046
:1059D000FAD9040062E904006EE904007BE90400DE
:1059E0009C4D35F0B5FC35F0B4FC9B49286836F089
:1059F000E6FE9A49286836F0E2FEA28898492868AF
:105A000036F0DDFE9749286836F0D9FED4F8062036
:105A10009549286836F0D3FE9449286836F0CFFEC1
:105A200062898F49286836F0CAFE9149286836F0A5
:105A3000C6FEA2898A49286836F0C1FE8D492868C9
:105A400036F0BDFEA27B8C49286836F0B8FE8B4943
:105A5000286836F0B4FEE27B8749286836F0AFFE4E
:105A60008749286836F0ABFE227C8349286836F0E7
:105A7000A6FE8449286836F0A2FE627C7E4928682A
:105A800036F09DFE28688049BDE8384036F097BE64
:105A9000704D35F05DFC35F05CFC7C49286836F0D3
:105AA0008EFE6E49286836F08AFEA2886C49286806
:105AB00036F085FE6B49286836F081FED4F8062062
:105AC0006949286836F07BFE7149286836F077FE10
:105AD000A27A6949286836F072FE28686A49BDE8EA
