:100000000010002065AC00006BA403006BA403008B
:100010006FBA03006BA403006BA403006BA403007E
:100020006BA403006BA403006BA403006BA4030088
:100030006BA40300E8FC0400ADA103006BA4030063
:100040006BA403009FB004006BA403006BA4030027
:1000500079610300AFB00400ABB004006169030034
:10006000A3B0040081B40000F1B500006BA403004C
:100070000D170000C7A203006BA403006BA40300CC
:100080006BA403006BA403000DB600006BA4030077
:100090006BA403006BA403006BA403006BA4030018
:1000A0006BA403006BA403006BA403006BA4030008
:1000B00095690300A7B00400AD8403006505010045
:1000C000D16903006BA40300114C03006BA403006F
:1000D0006BA403006BA403006BA403006BA40300D8
:1000E0006BA403006BA403006BA403006BA40300C8
:1000F0006BA403006BA403006BA4030000000000CA
:10010000013800D0FCE7704700000000000000004C
:1001100001F0FF01102A2BDB10F0070F08D010F8B8
:10012000013B013A8B422DD010F0070F42B3F6D1BC
:10013000F0B441EA012141EA014122F007047FF0D5
:1001400000070023F0E80256083C85EA010586EA2C
:10015000010685FA47F5A3FA87F586FA47F6A5FA68
:1001600087F68EB9EED1F0BC01F0FF0102F0070274
:1001700032B110F8013B013A83EA010313B1F8D11F
:100180000020704701387047002D06BF3546033800
:10019000073815F0010F07D1013015F4807F02BF39
:1001A000013015F4C03F0130F0BC0138704700BF8A
:1001B00070B5414C00238AB0E363054618B100884E
:1001C000236018F0D3F83D4E3D484AF02DFC3D4BDE
:1001D000336030463C4B736040F0D8FE002130461F
:1001E00032F070F932A3D3E90023A062C4E90623F8
:1001F00040F0D7FED4E90623194310434FF0FF33F4
:10020000C4E90601CDE900014FF0FF32A06A4AF0CF
:1002100074FC02224FF0FF31A06A4AF070FC01200A
:1002200017F04EFD2949A06A4FF4007300224AF0EE
:10023000CDFCB0F5007F38D10023CDE90733099319
:1002400094223C23CDE903320593A06A962303A9A7
:10025000069332F059FA35B3287C18F03BF905467D
:10026000F0B9A06A4AF08FFD18F0DCF817F00AFD2B
:1002700020B14FF48070002114F0ACFD17F012FD96
:1002800020B14FF40060002114F0A4FD40F04DFEB9
:10029000012032F06BF90E4A0E49A06A40F074FE5C
:1002A00028460AB070BDFF20D7E70725F8E700BF52
:1002B0000DD5015520000000F8130020F42C00207B
:1002C000690345EC517B0100E82C0020E82A00205E
:1002D000310F0400710F040010B5054C237833B9B9
:1002E000044B13B10448AFF300800123237010BD09
:1002F00050190020000000006445050008B5034BBC
:100300001BB103490348AFF3008008BD00000000A3
:100310005419002064450500A3F5803A704700BFDA
:10032000174B002B08BF134B9D46FFF7F5FF00212D
:100330008B460F461348144A121A4BF0F1F80E4B35
:10034000002B00D098470D4B002B00D09847002081
:10035000002104000D000D48002802D00C48AFF326
:10036000008038F09DFC2000290039F013FF38F0A0
:1003700083FC00BF00000800000000000000000037
:100380000010002084130020C83D00200000000061
:1003900000000000014B01221A707047E631002076
:1003A000024A136803F5FA7313607047DC190020E2
:1003B00030B589B0444C454D39F0E2FF39F0E1FFEA
:1003C000434920683BF07EF939F0DAFF39F0D9FF74
:1003D000404920683BF076F90AF0A6F80F21002387
:1003E000042203200CF050FB3B4B4FF40042C3F8B7
:1003F0009C204FF4FA700FF07FFE1622002102A815
:100400004BF08EF8354A162102A838F03BFE012148
:1004100002A839F0B2FF0123314A00934FF4FA7178
:10042000002330480AF058F939F0AAFF39F0A9FF43
:100430002D4920683BF046F9286800F08FFE00281F
:1004400036D139F09DFF39F09CFF284920683BF0F8
:1004500039F9286800F0B2FF80BB39F091FF39F01C
:1004600090FF234920683BF02DF939F089FF39F0DE
:1004700088FF204920683BF025F939F081FF39F0E9
:1004800080FF1D4920683BF01DF901231B4A0093A2
:1004900040F6B83100231A480AF01EF939F070FF0F
:1004A00039F06FFF174920683BF00CF909B030BDF7
:1004B00039F066FF39F065FF1349C7E739F060FF8F
:1004C00039F05FFF1149CDE7541B002020100020B8
:1004D00050B9040064B9040000A0004671B90400DA
:1004E000A1030000A41900207CB9040094B9040001
:1004F000BCB90400E4B90400F8B904009503000095
:10050000E419002010BA0400AAB90400D2B904000A
:100510002DE9F04395B06E4A137873B36D4D002307
:1005200013702868ADF818300DF11A0206A9ADF85D
:100530001A30ADF81C3000F0A7FE07A90446286861
:10054000654D00F095FF0646D4B139F019FF39F03A
:1005500018FFBDF81A30BDF81820604928683BF034
:10056000B1F8B6B139F00CFF39F00BFFBDF81C2023
:100570005B4928683BF0A6F8A4B915B0BDE8F08344
:1005800039F0FEFE39F0FDFE564928683BF09AF836
:10059000E7E739F0F5FE39F0F4FE534928683BF0FF
:1005A00091F8EAE7BDF81C10BDF8180039F0E7FD36
:1005B000064639F0E5FE39F0E4FE30462C6800F0DE
:1005C000B1FD4FF47A630293BDF81C3001934FF4F0
:1005D000FA730246454900932046BDF818303BF0B7
:1005E00071F8BDF81830424A162108A838F04AFDC3
:1005F000304600F097FD3F4A034616210EA838F01A
:1006000041FD022108A839F0B8FE03210EA839F0F7
:10061000B4FE022E8DF81760AFD84FF00109CDE976
:100620000099354C0DF1170306F110070293FFB244
:10063000A288618820883B461FF074FA804648B142
:1006400039F09EFE39F09DFE2C49424628683BF069
:1006500039F892E7A288618820881FF085FA8046E1
:1006600030B139F08DFE39F08CFE25494246EDE778
:1006700039F086FE39F085FE3046D5F8008000F06E
:1006800051FD204903463A4640463BF01BF8BDF871
:100690001830ADF81E300DF11E0302930223CDE990
:1006A00000931323A288618820881FF03BFA00285A
:1006B0007FF463AFA288618820881FF055FA39F073
:1006C0005FFE39F05EFEBDF818200F49BEE700BF9F
:1006D000E631002020100020541B00203BBA04000B
:1006E0007FBA040060BA04009CBA0400BBBA0400DC
:1006F000E4BA0400EBBA040088120020EEBA040049
:1007000018BB04003ABB040066BB0400F0B58FB010
:100710000368894A23F47F4323F007039342064684
:1007200006D002F14072934200F088800FB0F0BD15
:10073000824BD3F898211ABBD3F89821002AFBD01A
:1007400039F01EFE39F01DFE7D4B7E4918683AF0E7
:10075000B9FF1622002108A84AF0E2FE7A4A1621C3
:1007600008A838F08FFC022108A839F006FE1FF017
:10077000A9F80023754A76480093642109F0ACFF7C
:100780006F4D39F0FDFD39F0FCFD724928683AF0F3
:1007900099FF1FF04DF8044610B36F4928683AF0EE
:1007A00091FF6E4928683AF08DFF39F0E9FD39F084
:1007B000E8FD6B4B6B4A6C490093286840F28B1341
:1007C0003AF080FF69496A4A286823463AF07AFF7E
:1007D000204609F031FF674928683AF073FFFEE7C9
:1007E000654C664920461AF0E7F9014668B1079062
:1007F00039F0C6FD39F0C5FD079928680A466049F9
:100800000FB0BDE8F0403AF05DBF162208A84AF0EC
:1008100087FE2378049363780393A3780293E378A5
:100820000193237900936379564A162108A838F07A
:1008300029FC042108A839F0A0FD77E700238DF8F2
:10084000203044683E4D14F0200408D039F098FD63
:1008500039F097FD4C4928683AF034FF0124736859
:1008600013F040070FD0494A49491478092C095D13
:100870008DF8201015BF01340021147011700EBFC7
:100880000127012709241A0608D539F079FD39F026
:1008900078FD404928683AF015FF03247368DB05AA
:1008A00012D53D4B1B78012B0BBF022301230524DE
:1008B00004248DF8203039F063FD39F062FD3749AA
:1008C00028683AF0FFFE012708ABCDE90173344EEA
:1008D00001230093B2887188308823461FF022F9E3
:1008E000044648B139F04CFD39F04BFD2D49224604
:1008F00028683AF0E7FE19E739F042FD39F041FD8A
:10090000294928683AF0DEFEB288718830881FF0E5
:100910002BF9044630B139F033FD39F032FD23496B
:100920002246E5E739F02CFD39F02BFD20492868F7
:100930003AF0C8FEFAE600BFA00001000020144211
:10094000541B002081BB040091BB040055A103008F
:100950006C1900209FBB04006CFC0400ABBB0400BE
:100960001EC20400B0BB0400B9BB0400C8BB040035
:10097000C5BB0400DDBB0400DE310020E4310020F3
:1009800005BC040045BC040063BC0400E531002044
:100990003DC2040072BC04002A13002081BC040084
:1009A0008812002095BC0400B6BC0400DCBC040026
:1009B000F6BC04002DE9F04192B00368514A23F4DB
:1009C0007F4323F007039342054600F070832FD83E
:1009D00002F17E42934200F052830BD8A2F57022BE
:1009E000934254D002F5A022934200F0718212B0DB
:1009F000BDE8F081444A934200F0F68102F570228E
:100A00009342F4D1162200210CA84AF089FD3F4AF6
:100A100016210CA838F036FB02210CA839F0ADFCE9
:100A200039F0AEFC39F0ADFC39493A4B1868D8E1E1
:100A3000394A934200F0E4810ED802F17C4293429D
:100A400000F0FF8102F140729342D0D139F098FC5E
:100A500039F097FC3149CCE1314A934200F0DD8115
:100A600002F180729342C2D139F08AFC39F089FCDC
:100A7000B5F807300193B5F8093026480093B5F86A
:100A800005302A79274900683AF01CFEAFE7214C6F
:100A9000254E39F075FC39F074FC244920683AF091
:100AA00011FE334633F8080B0193F3790093B379C1
:100AB000B28871881FF06EF80746002848D01C499C
:100AC00020683AF0FFFD1B4920683AF0FBFD39F041
:100AD00057FC39F056FC184B184A19490093206806
:100AE00040F2FB133AF0EEFD1649174A20683B46E8
:100AF0003AF0E8FD384609F09FFD144920683AF0C5
:100B0000E1FDFEE7A8002302A8001401A0C1040033
:100B1000AEC10400541B0020A80014073DBF040010
:100B2000A80014088EBF04008812002031BD040004
:100B30006CFC0400ABBB04000BC20400B0BB04009F
:100B4000B9BB0400C8BB0400C5BB040042BD04001F
:100B50002D790CAF002D00F0CF8039F011FC39F069
:100B600010FCBB4920683AF0ADFD0DF12D03049354
:100B70000BAB03930DF12B0302930DF12A03CDE987
:100B800000730DF12E03B288718830881EF060FF6B
:100B90000546002800F0188139F0F2FB39F0F1FB2E
:100BA0002A46BDF83030AB4920683AF08BFD39F069
:100BB000E7FB39F0E6FBA84920683AF083FDA74B34
:100BC0000022D86819680090CDE9012201205A68F6
:100BD0009B681EF07DFF054640B139F0D1FB39F02E
:100BE000D0FB9F4920682A463AF06CFD39F0C8FBDB
:100BF00039F0C7FB9B4920683AF064FDB3887288DE
:100C0000308800211EF0B8FE054640B139F0B8FB2F
:100C100039F0B7FB924920682A463AF053FD39F083
:100C2000AFFB39F0AEFB904920683AF04BFD002154
:100C30004CF201030522CDE90311CDE90032029106
:100C4000B388728830881EF0CFFE054640B139F077
:100C500097FB39F096FB824920682A463AF032FD2C
:100C600039F08EFB39F08DFB804920683AF02AFD7F
:100C7000B288718830884CF201031EF099FE054657
:100C800040B139F07DFB39F07CFB754920682A467C
:100C90003AF018FD39F074FB39F073FB74492068A1
:100CA0003AF010FD0022114601201EF04FFE0546CD
:100CB00040B139F065FB39F064FB694920682A4688
:100CC0003AF000FD39F05CFB39F05BFB69492068C4
:100CD0003AF0F8FC042102201EF024FE054600280C
:100CE0003FF485AE39F04CFB39F04BFB5C49206892
:100CF0002A463AF0E7FC7AE639F042FB39F041FB4C
:100D00005D4920685D4E3AF0DDFC2946384619F011
:100D100053FFBDF83030C3F30E03338039F030FB9E
:100D200039F02FFB3288564920683AF0CBFC39F075
:100D300027FB39F026FB534920683AF0C3FC07959E
:100D40003288464B0495CDE905526E461A4603F1AA
:100D5000100710685168354603C50832BA422E465E
:100D6000F7D1186859689A68DB681EF06DFD054672
:100D700010B3454920683AF0A5FC444920683AF090
:100D8000A1FC39F0FDFA39F0FCFA414B414A4249E5
:100D90000093206840F20E233AF094FC3F49404A09
:100DA00020682B463AF08EFC284609F045FC3D4968
:100DB00020683AF087FCFEE7009003463A4A3B4839
:100DC000642109F089FC12E6BDF830204CF20203E0
:100DD0009A427FF4E1AE39F0D3FA39F0D2FA3449CD
:100DE00020683AF06FFC02E639F0CAFA39F0C9FA25
:100DF0003049314B186812B0BDE8F0413AF062BC9E
:100E000039F0BEFA39F0BDFA2B4BAA882B49186885
:100E100012B0BDE8F0413AF055BC39F0B1FA39F002
:100E2000B0FA28792649274AB5F80530002818BFB6
:100E30000A4621482449006812B0BDE8F0413AF062
:100E400041BC39F09DFA39F09CFA2049D1E700BF46
:100E500078BD040022BE04005FBE04002DC2040061
:100E600077BE04008CBE0400A5BE0400BFBE040013
:100E7000D9BE0400E9BE04008EBD04004431002048
:100E8000A3BD0400BEBD04006CFC0400ABBB0400A9
:100E90000BC20400B0BB0400B9BB0400C8BB040013
:100EA000C5BB0400D5BD040055A103006C1900208A
:100EB00004BE040001BF0400541B002016BF040040
:100EC0000FBD040006BD040055BF040074BF04003C
:100ED00039F056FA39F055FA2B7D0793EB7C0693DF
:100EE0006B7C0593B5F80F30049395F90E3003939E
:100EF000AB880293AB8901936B89744C00932B8967
:100F0000EA8873492068DFF818823AF0DBFB6FF05B
:100F1000150705F116067F1B6A7DBB19934238DB66
:100F200039F02EFA39F02DFA6A4920683AF0CAFBF6
:100F3000EB7C062B38D00A2B4ED0022B45D1D5F8AE
:100F4000165039F01DFA39F01CFA634B634A2768D2
:100F500032EA250228BF1A464FF47A7895FBF8F654
:100F6000304609924AF0A0FA089008FB16504AF061
:100F70009BFA5B495B4D0E785B49DDE90832012E37
:100F800018BF2946CDE90001584938463AF09AFB86
:100F90001BE039F0F5F939F0F4F916F8012B206867
:100FA00041463AF08FFBB7E74D4EAB7D337039F0D9
:100FB000E7F939F0E6F931784B4A4A4B20680129C4
:100FC00018BF1A464A493AF07DFB39F0D9F939F091
:100FD000D8F9404920680EE7464EAB7D337039F0B2
:100FE000CFF939F0CEF9327843492068434D3AF0D1
:100FF00069FB337803F0C002802A32D020D82AB3AC
:10100000402A29D02B688BB339F0BAF939F0B9F9F5
:1010100029683B4BB1FBF3F24EF66020002503FB41
:1010200012130195B3FBF0F3B1FBF0F500FB1511C2
:101030004FF47A752068B1FBF5F100913149A5E7CD
:10104000C02ADFD1304A23F0C00302E023F0C003FE
:10105000642253432B60D5E723F0C0034FF47A7228
:10106000F7E723F0C00342F21072F2E739F088F993
:1010700039F087F9254920683AF024FBA5E71622C4
:1010800000210CA84AF04CFA214A16210CA837F08E
:10109000F9FF02210CA839F070F903211D4839F03D
:1010A0006CF939F06DF939F06CF91B49BDE4162281
:1010B00000210CA84AF034FA184A16210CA837F07F
:1010C000E1FF02210CA839F058F990E4541B0020EC
:1010D000DBBF04000DBA04001CBD04003F0905007D
:1010E0002A13002026BD04001EBD04000CC104000C
:1010F00027C10400E731002033C10400E0190020BB
:1011000080EE36004CC10400C027090083C10400F2
:10111000C7C10400D3C10400DFC10400FEC1040044
:1011200008C10400022802460CD005D8064B074827
:10113000002A18BF18467047054B0648FF2A18BFFB
:1011400018467047044870474FC204005BC2040051
:1011500047C2040060C2040054C204002DE9F04FED
:1011600089B0B2238DF808303E4B039301240DF172
:10117000070300270DF1080903A980468DF80770C1
:10118000CDF81090ADF814400693ADF81C4009F06E
:1011900053FF354D064648B139F0F2F839F0F1F811
:1011A000324928683AF08EFA38460FE09DF8073049
:1011B000502B0ED039F0E4F839F0E3F89DF8072011
:1011C0002B49286850233AF07DFA304609B0BDE833
:1011D000F08F39F0D5F8DFF8ACB039F0D2F89DF8DF
:1011E0000720244928683AF06DFA4FF0020AA1233B
:1011F00003A94046CDE903B98DF808308DF80960A0
:10120000ADF814A009F018FF074640B139F0B8F85E
:1012100039F0B7F8184928683AF054FAD5E7A0230E
:101220008DF8083003A903234046CDE903B98DF8B2
:101230000930ADF814A009F0FFFE28B139F0A0F88C
:1012400039F09FF80D49ACE778200EF055FF39F0E2
:1012500097F839F096F80A4928683AF033FA2046A8
:10126000B4E700BF52000400541B002065C2040014
:10127000A1C20400D6C20400F2C204001AC30400D2
:1012800041C30400520001002DE9F04188B0B423AD
:101290008DF807301B4B03930DF10703049302AB4A
:1012A00006930D460423012403A91646ADF8144005
:1012B000ADF81C3009F0C0FEDFF85480074668B175
:1012C00039F05EF839F05DF80F49D8F800003A4679
:1012D0003AF0F8F9002008B0BDE8F081BDF8083018
:1012E0002B80BDF80A30338039F04AF839F049F8DC
:1012F00033882A880549D8F800003AF0E3F92046F7
:10130000E9E700BF5200040055C3040083C3040092
:10131000541B002070B586B08DF800100F4B019360
:1013200001240D4601A9CDF808D0ADF80C40049277
:10133000ADF8144009F080FE064668B139F020F897
:1013400039F01FF806480749006833462A463AF044
:10135000B9F9002006B070BD2046FBE72600040066
:10136000541B0020A0C3040030B587B0104B8DF88B
:10137000001001930C46022301A98DF80120CDF83D
:1013800008D0ADF80C3009F057FE054668B138F0CA
:10139000F7FF38F0F6FF0748074900682B4622465A
:1013A0003AF090F9002007B030BD0120FBE700BF04
:1013B00026000100541B0020CBC3040073B50DF1BF
:1013C00007020023812106468DF80730FFF7A2FFB0
:1013D000214D044650B938F0D3FF38F0D2FF1F49F1
:1013E00028683AF06FF9204602B070BD9DF80730CA
:1013F000212B17D038F0C4FF38F0C3FF9DF8072029
:101400001749286821233AF05DF90A2283213046E2
:10141000FFF7AAFF044680B938F0B2FF38F0B1FFF9
:101420001049DDE738F0ACFF38F0ABFF9DF807203E
:101430000D4928683AF046F9E7E702228221304652
:10144000FFF792FF04460028CDD138F099FF38F01D
:1014500098FF0649C4E700BF541B0020F7C30400EF
:101460001AC404007CC4040055C40400A2C40400CF
:1014700073B50E4600230DF10502802104468DF858
:1014800005308DF806308DF80730FFF743FF10B9AF
:10149000002002B070BD9DF80520802142F00802B6
:1014A00020468DF80520FFF75FFF0028F0D041F2BD
:1014B00088350DF1050280212046FFF72BFF00281B
:1014C000E6D09DF805309B0605F1FF350BD4002DC5
:1014D000EFD138F055FF38F054FF104B1049186821
:1014E0003AF0F0F8D4E7002DF3D00DF10602872191
:1014F0002046FFF70FFF0028CAD00DF10702882110
:101500002046FFF707FF0028C2D09DF806209DF86F
:10151000073043EA02233380BBE700BF541B00209F
:10152000C3C4040001481DF01FB800BFC8C60400B2
:1015300038B50AF00DFD0E480E4C01210AF05CF999
:101540000122114600200AF037FC02250122114633
:10155000C4F8805000200AF02FFC0122C4F8845007
:10156000114600200AF028FCC4F88850002038BD3D
:1015700030253E0000400E4007B5204B01225A6442
:101580001A6842F480721A6001A80BF059FE9DF8A7
:101590000530012B03D89DF80430022B0DD9184BD0
:1015A0004FF41872C3F88C22164AC3F89022164AD8
:1015B000C3F8F022154AC3F8F822154AD2F8A4312C
:1015C00043F4F843C2F8A4310DF06AFC09F074F951
:1015D0000DF002FC0DF050FC0DF014FCFFF7A8FF1D
:1015E0003AF014F809F05AF909F0D6FB0AF01CF8A1
:1015F00003B05DF804EB0EF0DFB800BF00000E4052
:1016000000400E409A6F0500180100040084320863
:1016100000300E4008B5044801210AF0EDF8BDE89D
:101620000840024809F0A4BC00350A000810002058
:1016300030B597B0214D0FCD0FAC0FC495E8070022
:10164000302384E807008DF855301D4A1D4BCDE945
:1016500003234FF08073059303F1022306934FF0A9
:10166000F0511E23CDE90713102200210BA849F0E9
:1016700057FF154B4FF44020CDE909030C238DF89B
:101680002C300D238DF82D30104B0C9320230D930F
:101690000F4B009309A903AB0FAA0E480DF036FEBD
:1016A0009DF83A30002B04460CBF032100214FF473
:1016B000E13038F0ABFE204617B030BD34C704002F
:1016C00000000140003204001C000140E83100200D
:1016D0001C1A0020781A0020012905D8034B1B682A
:1016E000186808B1436A1847704700BF2C100020E3
:1016F00008B5044904480EF00BF9BDE80840FFF7AF
:1017000097BF00BF24100020701A002001483AF053
:1017100046B900BF781A0020014B1A6A18681047B2
:10172000781A002008B5044838F0ADFEBDE808403E
:10173000024838F0A8BE00BF50C7040068C70400C4
:10174000F8B5084E084F0C4605460849306839F090
:10175000B9FF013C2A5D3068394639F0B3FF013CDE
:10176000F8D2F8BD541B00205EBC040080C7040002
:10177000F8B50B4E0B4F04460D4630680A4939F058
:10178000A1FF2544AC42306804D1BDE8F8400749C8
:1017900039F098BF14F8012B394639F093FFF1E77F
:1017A000541B00205EBC040083C7040085C70400EE
:1017B00010B5074C38F0E4FD38F0E3FD054920682A
:1017C00039F080FF20680449BDE8104039F07ABF45
:1017D000541B002087C7040097C7040038B504468F
:1017E000D0B30368974A23F47F4323F0070393425F
:1017F00004F0458401F28E83A2F13472934206F024
:101800000A8600F2AD85A2F56D02934207F0878744
:1018100000F2D682A2F56812934207F04A8400F2E1
:101820004581A2F59012934203F0FD8579D8A2F587
:10183000C022934203F03E840FD8A2F58022934247
:1018400003F07B8002F54032934203F0A383A2F5BC
:101850008022934202F0078538BD7B4A934203F011
:10186000E28402F54032934203F08685A2F580229D
:101870009342F1D1754D38F083FD38F082FD744903
:10188000286839F01FFF7349286839F01BFFA288C8
:101890007149286839F016FF7049286839F012FF3D
:1018A000E2886D49286839F00DFF6D49286839F0E4
:1018B00009FF22896849286839F004FF69492868C6
:1018C00039F000FF62896449286839F0FBFE6649F7
:1018D000286839F0F7FE227B6449286839F0F2FE67
:1018E0006349286839F0EEFE627B6049286839F068
:1018F000E9FE6049286839F0E5FEE2895649286822
:1019000039F0E0FE5C49286839F0DCFE217C04F106
:101910001100FFF72DFF28685849BDE8384039F01D
:10192000D1BE574A934203F08E8737D8A2F5802262
:10193000934203F0DA8602F58032934203F038874F
:10194000A2F50032934287D1404D38F019FD38F0AE
:1019500018FD4C49286839F0B5FE4B49286839F024
:10196000B1FEA2883C49286839F0ACFE4749286896
:1019700039F0A8FEA2793D49286839F0A3FE444910
:10198000286839F09FFEE2793849286839F09AFED4
:1019900028683A49BDE8384039F094BE3D4A934240
:1019A00004F0F68502F5E022934207F01382A2F5D7
:1019B000002293427FF450AF244D38F0E1FC38F020
:1019C000E0FC3549286839F07DFE2449286839F063
:1019D00079FEA2882049286839F074FE20492868D9
:1019E00039F070FEE2881C49286839F06BFE2B49FB
:1019F000286839F067FE227A1C49286839F062FEAF
:101A00002749286839F05EFE627A1849286839F05B
:101A100059FE2449286839F055FE62890E49286824
:101A200039F050FE2049286839F04CFEA2890A4955
:101A3000286839F047FE28681049BDE8384039F079
:101A400041BE00BFA8002804A8001B00541B0020B2
:101A50002CD104004DD104003EBC040038D0040059
:101A60005ED10400D8C804006FD10400BFC70400D1
:101A700079D1040067C9040083D1040097C704002A
:101A8000A800270031D30400B6CF040061D30400BE
:101A90006BD30400A800290007DA040031DA04003F
:101AA00046DA04005BDA040068DA0400A54A9342CF
:101AB00005F0848700F2AE80A2F5A022934205F0E3
:101AC0008E8354D8A2F54032934205F06C8002F523
:101AD0008032934205F0AA82A2F5003293427FF44D
:101AE000BBAE994D38F04CFC38F04BFC9749286858
:101AF00039F0E8FD9649286839F0E4FDA288954957
:101B0000286839F0DFFD9449286839F0DBFDE28868
:101B10009049286839F0D6FD9049286839F0D2FDFF
:101B200022898C49286839F0CDFD8D49286839F023
:101B3000C9FD62898749286839F0C4FD8949286848
:101B400039F0C0FD227B8849286839F0BBFD874900
:101B5000286839F0B7FDB4F80D207E49286839F0BF
:101B6000B1FD28688249BDE8384039F0ABBD814AF3
:101B7000934205F0998502F58032934205F0D985AC
:101B8000A2F5003293427FF467AE6F4D38F0F8FB58
:101B900038F0F7FB7849286839F094FD77492868D0
:101BA00039F090FDA2886B49286839F08BFD6A49AD
:101BB000286839F087FDE2886649286839F082FD97
:101BC0006649286839F07EFD22896249286839F023
:101BD00079FD6349286839F075FD62895D49286897
:101BE00039F070FD6649286839F06CFD227B5E494A
:101BF000286839F067FD6349286839F063FD627B26
:101C00005949286839F05EFD28685949BDE83840CF
:101C100039F058BD5C4A934206F0C6805DD8A2F503
:101C20008022934206F0B28202F58032934205F0A0
:101C30005F87A2F5003293427FF40EAE424D38F03A
:101C40009FFB38F09EFB5149286839F03BFD424923
:101C5000286839F037FDA2883E49286839F032FDFE
:101C60004B49286839F02EFDA01D0821FFF768FDBB
:101C70004849286839F026FDA27B3B49286839F09D
:101C800021FD4549286839F01DFDE27B3649286869
:101C900039F018FD4149286839F014FD227C324999
:101CA000286839F00FFD3E49286839F00BFDD4F85B
:101CB00011203C49286839F005FD3B49286839F076
:101CC00001FDB4F915203949286839F0FBFC286872
:101CD0002749BDE8384039F0F5BC354A934206F053
:101CE0005E8302F5003293427FF4B6AD164D38F0B4
:101CF00047FB38F046FB2F49286839F0E3FC1649CA
:101D0000286839F0DFFCA2881249286839F0DAFC2B
:101D10002949286839F0D6FCA2791349286839F096
:101D2000D1FC2649286839F0CDFCB4F807200949D0
:101D3000286839F0C7FC28680D49BDE8384039F0FB
:101D4000C1BC00BFA8005100541B002063DF040089
:101D50005ED104003EBC040038D004004DD1040024
:101D6000CDD0040086D20400BFC70400E1DE040029
:101D700097C70400A8004E00CEE304009BD00400E7
:101D8000EAE30400F7E30400A800570029E904008F
:101D900047E9040055E9040061E904006FE9040023
:101DA00080E9040090E9040094E904008CCD04006B
:101DB000A8005800E2F20400DEC90400FEEC0400B2
:101DC000A04A934207F0398000F20881A2F58812F8
:101DD000934203F092837FD8A2F5E022934203F06E
:101DE000F18041D8A2F58022934202F0688202F588
:101DF0008032934202F02E86A2F5A01293427FF425
:101E00002BAD914D38F0BCFA38F0BBFA8F492868F9
:101E100039F058FC8E49286839F054FCA2888D4965
:101E2000286839F04FFC8C49286839F04BFCA279BE
:101E30008A49286839F046FC8949286839F042FC0B
:101E4000E2798649286839F03DFC8649286839F0EE
:101E500039FCA2688449286839F034FC2868834931
:101E6000BDE8384039F02EBC814A934203F09F818F
:101E700002F58032934203F0F781A2F500329342DB
:101E80007FF4EAAC704D38F07BFA38F07AFA794991
:101E9000286839F017FC7849286839F013FCA288C3
:101EA0006C49286839F00EFC7449286839F00AFC3E
:101EB000E2886849286839F005FC7149286839F0DA
:101EC00001FC227A6549286839F0FCFB28686749DB
:101ED000BDE8384039F0F6BB6A4A934203F0CB8440
:101EE0002FD8A2F58022934203F0208402F580329D
:101EF000934203F07E84A2F5003293427FF4ACACAF
:101F0000514D38F03DFA38F03CFA5F49286839F015
:101F1000D9FB5E49286839F0D5FBA2884D4928686D
:101F200039F0D0FB5A49286839F0CCFBA2794B49EB
:101F3000286839F0C7FB28684C49BDE8384039F0BB
:101F4000C1BB544A934204F0E88002F580329342C8
:101F50007FF482AC3C4D38F013FA38F012FA4E4957
:101F6000286839F0AFFB4D49286839F0ABFBA288EF
:101F70003849286839F0A6FB4949286839F0A2FB9E
:101F8000E2883449286839F09DFB4649286839F0D1
:101F900099FB08216018FFF7D3FB4349286839F003
:101FA00091FB228A2B49286839F08CFB3F4928682D
:101FB00039F088FB628A2749286839F083FB3C495D
:101FC000286839F07FFBA28A2249286839F07AFB19
:101FD00028682649BDE8384039F074BB354A934239
:101FE00005F0018400F2B680A2F5C022934204F00D
:101FF0001F8665D8A2F50032934204F0548302F59F
:102000008032934204F08584A2F5B81293427FF4A3
:1020100023AC0D4D38F0B4F938F0B3F926492868EF
:1020200039F050FB2549286839F04CFB22790B49DF
:10203000286839F047FB28680C49BDE8384039F07A
:1020400041BB00BFA8003001541B0020BECF0400DC
:10205000E2CF04003EBC0400EBCF0400BFC7040085
:10206000F4CF0400FDCF0400DBC7040097C70400D1
:10207000A8001A010CD10400D8C804007CCF0400C9
:10208000E9D00400A800270175D30400C6C70400E6
:10209000A0D30400A8002801D8DD040038D0040033
:1020A0004DD104004EDB04000DDC040098DD04007B
:1020B0001CDC0400A8004F01A2F20400D5F20400C9
:1020C0008A4A934205F0C78002F58032934205F0B8
:1020D0008081A2F5403293427FF4BEAB844D38F04C
:1020E0004FF938F04EF98349286839F0EBFA824904
:1020F000286839F0E7FAA2888049286839F0E2FABE
:102100007F49286839F0DEFAE2887C49286839F08E
:10211000D9FA7C49286839F0D5FA227A7A492868B0
:1021200039F0D0FA7949286839F0CCFA627A7649E0
:10213000286839F0C7FA7649286839F0C3FAA17AD5
:1021400004F10B00FFF714FB28687249BDE8384022
:1021500039F0B8BA704A934206F0838041D8A2F5AC
:102160000032934205F0668402F58032934205F016
:102170004C87A2F5003293427FF46EAB5C4D38F091
:10218000FFF838F0FEF86549286839F09BFA644991
:10219000286839F097FAA2885849286839F092FAE5
:1021A0005549286839F08EFAE2885449286839F090
:1021B00089FA5C49286839F085FA22894F492868EC
:1021C00039F080FA5849286839F07CFA62894B491D
:1021D000286839F077FA28684E49BDE8384039F068
:1021E00071BA524A934205F0E18402F5803293427B
:1021F0007FF432AB3E4D38F0C3F838F0C2F84C49AA
:10220000286839F05FFA3C49286839F05BFAA288FF
:102210003A49286839F056FA3A49286839F052FAAA
:10222000A2793949286839F04DFA4249286839F0CD
:1022300049FAE2793449286839F044FA3E49286875
:1022400039F040FA22892D49286839F03BFA3B4998
:10225000286839F037FAA27A2B49286839F032FA1F
:102260003749286839F02EFAE27A2749286839F088
:1022700029FA3449286839F025FA227B224928684E
:1022800039F020FA3049286839F01CFA627B1E497F
:10229000286839F017FA2D49286839F013FAA27B1B
:1022A0001949286839F00EFA2949286839F00AFADC
:1022B000E27B1549286839F005FA2649286839F083
:1022C00001FA22692449286839F0FCF92349286871
:1022D00039F0F8F9A28A0949286839F0F3F9286831
:1022E0000C49BDE8384039F0EDB900BFA8004C01F9
:1022F000541B002013E2040038D004003EBC04004C
:102300005ED104001AC90400BFC70400B6CF0400A0
:1023100040E2040097C70400A800530106E6040049
:102320009BD004004DD10400CDD00400A80054017E
:10233000B2E704005EE7040065E704006DE704000F
:1023400073E704007AE7040083E704008CE70400E5
:102350009AE704001CD30400DBC70400A3E70400D1
:10236000AE4A934206F0738700F22083A2F57C12F6
:10237000934203F0FC8100F29381A2F5380293426C
:1023800007F0EF8100F2A680A2F5E022934207F069
:102390003F805CD8A2F50032934206F0F58602F544
:1023A0008032934206F0E487A2F5102293427FF434
:1023B00053AA9B4D37F0E4FF37F0E3FF99492868B3
:1023C00039F080F99849286839F07CF9A288974952
:1023D000286839F077F99649286839F073F9E28866
:1023E0009249286839F06EF99249286839F06AF9FB
:1023F000227A9149286839F065F99049286839F0BE
:1024000061F9627A8C49286839F05CF98C4928684E
:1024100039F058F9A27A8849286839F053F989497E
:10242000286839F04FF9E27A8349286839F04AF987
:102430008549286839F046F9227B7F49286839F0B8
:1024400041F928688149BDE8384039F03BB9804AF4
:10245000934207F0BD8002F58032934207F01A8163
:10246000A2F5403293427FF4F7A96D4D37F088FF13
:1024700037F087FF7749286839F024F976492868CA
:1024800039F020F962687549286839F01BF97449F8
:10249000286839F017F9227A6749286839F012F963
:1024A0007049286839F00EF9B4F809205F492868A6
:1024B00039F008F96C49286839F004F9B4F80B20B0
:1024C0005A49286839F0FEF828686049BDE8384064
:1024D00039F0F8B8654A934202F0958553D8A2F5D1
:1024E0008022934201F00D8702F58032934202F080
:1024F0001983A2F5A01293427FF4AEA9484D37F09C
:102500003FFF37F03EFF5A49286839F0DBF8594958
:10251000286839F0D7F8A2884449286839F0D2F8F9
:102520005549286839F0CEF8A2794349286839F02E
:10253000C9F83D49286839F0C5F8E2793E4928686C
:1025400039F0C0F84D49286839F0BCF8228937497C
:10255000286839F0B7F84A49286839F0B3F8628931
:102560003249286839F0AEF84649286839F0AAF8A7
:10257000A2892E49286839F0A5F828683349BDE8B2
:10258000384039F09FB8404A934202F0F28702F592
:102590004032934203F02980A2F5002293427FF457
:1025A0005BA91F4D37F0ECFE37F0EBFE374928688A
:1025B00039F088F83649286839F084F8A2881B4930
:1025C000286839F07FF81849286839F07BF8E288E4
:1025D0001649286839F076F82E49286839F072F8DB
:1025E00022891249286839F06DF82B49286839F09A
:1025F00069F862890D49286839F064F82749286824
:1026000039F060F8227B0C49286839F05BF82868BB
:102610000E49BDE8384039F055B800BFA800620245
:10262000541B002010F3040038D004003EBC04000A
:10263000C6C7040031ED0400BFC7040040ED04002C
:1026400050ED04005DED0400B2E2040097C7040001
:10265000A8006801F6F504007CCF0400DBC7040085
:1026600012F604004CDC040020F60400A800180256
:1026700011D00400E2CF0400EBCF040067C90400CE
:1026800073C9040037C80400A8001F02BDD10400AC
:102690004DD104005ED10400D8C80400E8D1040084
:1026A000A44A934204F0D18600F29380A2F5A022BE
:1026B000934204F08F812FD8A2F5C012934206F006
:1026C000018402F5B812934204F03380A2F500129F
:1026D00093427FF4C1A8984D37F052FE37F051FE77
:1026E0009649286838F0EEFF9549286838F0EAFFE7
:1026F00062689449286838F0E5FF9349286838F003
:10270000E1FF217A04F10900FFF732F828688F49C8
:10271000BDE8384038F0D6BF8D4A934204F0C284F9
:1027200002F50032934204F00586A2F5403293424E
:102730007FF492A8804D37F023FE37F022FE8549C2
:10274000286838F0BFFF8449286838F0BBFFA288AA
:102750008249286838F0B6FF8149286838F0B2FF0E
:10276000E2887E49286838F0ADFF7E49286838F055
:10277000A9FF22897949286838F0A4FF7A49286896
:1027800038F0A0FF62897549286838F09BFF7749C7
:10279000286838F097FF227B7549286838F092FF47
:1027A0007449286838F08EFFB4F80D206B4928680A
:1027B00038F088FF7049286838F084FFE17B04F125
:1027C0001000FEF7D5FF28686049BDE8384038F0B2
:1027D00079BF6A4A934205F0948541D8A2F5003248
:1027E000934205F0638102F58032934205F0428402
:1027F000A2F5003293427FF42FA84F4D37F0C0FD71
:1028000037F0BFFD5E49286838F05CFF5D492868F5
:1028100038F058FFA2885149286838F053FF5049D2
:10282000286838F04FFFE2884C49286838F04AFFA2
:102830004949286838F046FF22894849286838F015
:1028400041FF4949286838F03DFF628943492868BB
:1028500038F038FF28683D49BDE8384038F032BFCD
:10286000494A934205F0398202F5403293427EF4A0
:10287000F3AF314D37F084FD37F083FD43492868CD
:1028800038F020FF3649286838F01CFFA288334909
:10289000286838F017FF3049286838F013FFE288BD
:1028A0002E49286838F00EFF3949286838F00AFFA9
:1028B00022892A49286838F005FF3649286838F007
:1028C00001FF04F10A001021FEF73AFF324928689F
:1028D00038F0F8FEA27E2649286838F0F3FE2F492A
:1028E000286838F0EFFEE27E2149286838F0EAFED9
:1028F0002B49286838F0E6FEA28B1849286838F082
:10290000E1FE2849286838F0DDFEE28B134928688B
:1029100038F0D8FE2449286838F0D4FE94F82020F6
:102920001349286838F0CEFE28680849BDE83840C9
:1029300038F0C8BEA8004D02541B002044D5040046
:102940007CCF0400DBC7040063D5040097C70400F4
:10295000A8004A02FDE004004DD104003EBC040082
:1029600038D004005ED10400CDD0040086D204002B
:10297000BFC70400E1DE040020E10400A800530208
:102980001CE604009BD00400A8005502A7EB04003D
:10299000CAEB0400DAEB0400A5D60400ECEB04005B
:1029A00019E9040000EC0400C8DD0400934A9342D6
:1029B00004F0B68100F25E81A2F51C12934202F08F
:1029C0005B8600F28B80A2F53702934206F0FF8609
:1029D0004BD8A2F5E022934206F04E8502F5003274
:1029E000934206F0B285A2F5403293427EF434AFB2
:1029F000834D37F0C5FC37F0C4FC8249286838F0B5
:102A000061FE8149286838F05DFE22797F49286897
:102A100038F058FE7E49286838F054FE62797B49C8
:102A2000286838F04FFE7B49286838F04BFED4F810
:102A300006207949286838F045FE7849286838F03A
:102A400041FEA27A7149286838F03CFE7449286832
:102A500038F038FEE27A6D49286838F033FE28688D
:102A60007049BDE8384038F02DBE6F4A934201F0FE
:102A7000698402F58032934202F07480A2F5A012BC
:102A800093427EF4E9AE5E4D37F07AFC37F079FC84
:102A90006649286838F016FE6549286838F012FE45
:102AA000A2886449286838F00DFE6349286838F028
:102AB00009FEA2795549286838F004FE5F49286864
:102AC00038F000FEB4F807205A49286838F0FAFDBB
:102AD00028685449BDE8384038F0F4BD584A93425C
:102AE00006F02E8230D8A2F50022934203F0C48370
:102AF00002F58032934203F08F85A2F500329342B3
:102B00007EF4AAAE3E4D37F03BFC37F03AFC4D491F
:102B1000286838F0D7FD4C49286838F0D3FDA288E2
:102B20004449286838F0CEFD4849286838F0CAFD85
:102B3000D4F806203849286838F0C4FD2868394997
:102B4000BDE8384038F0BEBD414A934203F070867C
:102B500002F5803293427EF47FAE294D37F010FCAF
:102B600037F00FFC3B49286838F0ACFD3A4928683B
:102B700038F0A8FDA2882F49286838F0A3FD37490E
:102B8000286838F09FFDE2882A49286838F09AFDC5
:102B90003349286838F096FD22892649286838F09C
:102BA00091FD3049286838F08DFD628921492868F7
:102BB00038F088FD2C49286838F084FD227B1349C1
:102BC000286838F07FFD2949286838F07BFDB4F883
:102BD0000D201849286838F075FD2549286838F017
:102BE00071FDB4F80F201349286838F06BFD286890
:102BF0000C49BDE8384038F065BD00BFA800490366
:102C0000541B002037F50400BBF40400BFC70400C8
:102C1000D0F40400E6F40400DBC70400BBF30400B6
:102C2000F8F4040097C70400A800140345D004007A
:102C3000E2CF04003EBC0400EBCF040072D00400DD
:102C4000A800300374D50400D8C804007CCF040069
:102C5000A800470314E004005ED1040038D004004B
:102C60004DD10400CDD0040086D20400E1DE040082
:102C700041E004008E4A934205F02A8400F2A480C9
:102C8000A2F5C022934205F02A8253D8A2F5A022D1
:102C9000934204F0208402F54032934204F0F2851E
:102CA000A2F5802293427EF4D7AD824D37F068FBC7
:102CB00037F067FB8049286838F004FD7F492868B1
:102CC00038F000FDA2887E49286838F0FBFC7D4979
:102CD000286838F0F7FCE2887949286838F0F2FC77
:102CE0007949286838F0EEFC22897549286838F05F
:102CF000E9FC7649286838F0E5FC62897049286863
:102D000038F0E0FC7249286838F0DCFCA2896C4994
:102D1000286838F0D7FC6F49286838F0D3FCA17BCD
:102D200004F10F00FEF724FD28686B49BDE8384028
:102D300038F0C8BC694A934204F0FA8702F50032C1
:102D4000934205F09980A2F5802293427EF484ADEF
:102D5000584D37F015FB37F014FB6149286838F0FF
:102D6000B1FC6049286838F0ADFCA2885449286855
:102D700038F0A8FC5349286838F0A4FCE288504990
:102D8000286838F09FFC5049286838F09BFC22895D
:102D90004B49286838F096FC4C49286838F092FC7A
:102DA00062894749286838F08DFC4F49286838F017
:102DB00089FC227B4D49286838F084FC2868464904
:102DC000BDE8384038F07EBC494A934201F0E482C5
:102DD00042D8A2F53002934206F0798302F5003220
:102DE000934206F0D383A2F5502293427EF434AD91
:102DF000304D37F0C5FA37F0C4FA3E49286838F04C
:102E000061FC3049286838F05DFCA2882C492868AC
:102E100038F058FC2C49286838F054FCE2882849DE
:102E2000286838F04FFC3449286838F04BFC227A87
:102E30002E49286838F046FC3049286838F042FCB2
:102E4000B4F809201E49286838F03CFC286822495B
:102E5000BDE8384038F036BC294A934202F0368447
:102E600002F5A02293427EF4F7AC124D37F088FAB7
:102E700037F087FA2349286838F024FC224928686B
:102E800038F020FCA2880E49286838F01BFC1F4946
:102E9000286838F017FCD4F806201D49286838F057
:102EA00011FC28680C49BDE8384038F00BBC00BF65
:102EB000A8005803541B00209EE304009BD004008C
:102EC0003EBC040038D004005ED10400CDD0040024
:102ED000E1DE0400BDE3040097C70400A800550329
:102EE00015EB04004DD10400A4EA0400BFC70400A0
:102EF000A8001404D7EE0400EBCF0400FCEE04009D
:102F0000A800220497D50400D8C804007CCF040090
:102F1000DBC704009A4A934201F02C8300F23C85FF
:102F200002F17B4202F58A02934205F0E38500F24A
:102F3000DF82A2F18672934204F0098300F29B8142
:102F4000A2F57502934205F0E48200F29A80A2F5A0
:102F50007022934203F03D8749D8A2F50032934294
:102F600003F0B58402F58032934203F0A185A2F507
:102F7000F81293427EF470AC824D37F001FA37F0CC
:102F800000FA8149286838F09DFB8049286838F0AC
:102F900099FBA2887E49286838F094FB7D4928680F
:102FA00038F090FBE2887A49286838F08BFB7A4940
:102FB000286838F087FB08216018FEF7C1FB7749C5
:102FC000286838F07FFB228A7149286838F07AFB3C
:102FD0007349286838F076FB628A6D49286838F0B2
:102FE00071FB28686F49BDE8384038F06BBB6E4A0A
:102FF000934204F0C18402F5E022934204F0778703
:10300000A2F5202293427EF427AC5E4D37F0B8F94A
:1030100037F0B7F96549286838F054FB64492868E7
:1030200038F050FBA2885A49286838F04BFB5749C2
:10303000286838F047FBE2885549286838F042FB99
:103040005C49286838F03EFB22895149286838F0ED
:1030500039FB5949286838F035FB62894C492868A2
:1030600038F030FB5549286838F02CFBE2685449A9
:10307000286838F027FB28684A49BDE8384038F00E
:1030800021BB504A934203F0A08000F2B380A2F526
:10309000A012934201F0A98102F59812934202F026
:1030A0000C84A2F54E0293427EF4D6AB354D37F038
:1030B00067F937F066F94449286838F003FB33496B
:1030C000286838F0FFFAA2883149286838F0FAFAFF
:1030D0003E49286838F0F6FAE2882D49286838F029
:1030E000F1FA3B49286838F0EDFA22892849286826
:1030F00038F0E8FA3749286838F0E4FA6289244958
:10310000286838F0DFFA3449286838F0DBFAA289F9
:103110001F49286838F0D6FA3049286838F0D2FAC2
:10312000A27B2F49286838F0CDFA2E49286838F05C
:10313000C9FAE27B2A49286838F0C4FA2A49286883
:1031400038F0C0FA227C2649286838F0BBFA2749B3
:10315000286838F0B7FA627C2149286838F0B2FA5A
:103160002349286838F0AEFAA27C1D49286838F057
:10317000A9FA28680B49BDE8384038F0A3BA00BF67
:10318000A800140B541B002028DE040038D00400D3
:103190003EBC04004DD104004EDB04000DDC0400F5
:1031A0001CDC040097C70400A8005004A8E4040035
:1031B0009BD00400B1D00400CDD00400D1E40400C1
:1031C000DBC70400A80028050EEF04005ED1040050
:1031D0001AC90400FCEE0400C6C704003BCE04007C
:1031E000BFC7040040ED040031EF04005DED0400B2
:1031F000B2E20400A04A934203F0B38402F58032A5
:10320000934203F02B86A2F5C81293427EF424ABBE
:103210009A4D37F0B5F837F0B4F89949286838F086
:1032200051FA9849286838F04DFAA28896492868DA
:1032300038F048FA9549286838F044FAE28892490B
:10324000286838F03FFA9249286838F03BFA227A29
:103250009049286838F036FA8F49286838F032FAF1
:10326000627A8C49286838F02DFA28688B49BDE8C5
:10327000384038F027BA8A4A934203F0308051D858
:10328000A2F54F02934205F0F98325D8A2F500324A
:10329000934204F0448602F58032934205F05A814D
:1032A000A2F5002293427EF4D7AA744D37F068F855
:1032B00037F067F87B49286838F004FA7A492868BB
:1032C00038F000FA2179601DFEF752FA2868734938
:1032D000BDE8384038F0F6B9744A934201F0928460
:1032E00002F59012934202F00983A2F598129342DC
:1032F0007EF4B2AA614D37F043F837F042F86C49DA
:10330000286838F0DFF95F49286838F0DBF9A288CF
:103310005D49286838F0D6F928686049BDE838402A
:1033200038F0D0B9634A934204F032815FD8A2F5F5
:10333000E812934205F08A8602F5C812934203F020
:10334000DC85A2F5001293427EF486AA4B4D37F03D
:1033500017F837F016F85849286838F0B3F9574984
:10336000286838F0AFF9A2884749286838F0AAF9E8
:103370005349286838F0A6F9A2794649286838F0F8
:10338000A1F95049286838F09DF9E01D0821FEF7A1
:10339000D7F94D49286838F095F9D4F80F204B49F2
:1033A000286838F08FF94A49286838F08BF9B4F862
:1033B00013203549286838F085F94649286838F0DF
:1033C00081F9D4F815204149286838F07BF9424941
:1033D000286838F077F9B4F819202B49286838F0B4
:1033E00071F928682D49BDE8384038F06BB93B4A7F
:1033F000934204F0B58502F5803293427EF42CAA04
:103400001E4D36F0BDFF36F0BCFF3549286838F058
:1034100059F92A49286838F055F9A2881A492868C4
:1034200038F050F92F49286838F04CF9E2881649ED
:10343000286838F047F92C49286838F043F9A26821
:103440002249286838F03EF91E49286838F03AF9D0
:1034500004F10C000821FEF773F92449286838F0BC
:1034600031F9217D04F11500FEF782F928680B4936
:10347000BDE8384038F026B9A8004805541B0020A4
:1034800018F20400D8C804003EBC0400E2CF0400D7
:10349000EBCF0400BFC70400DEC9040097C70400D7
:1034A000A80028067FE60400A0E60400A800150690
:1034B000B9C80400A8004D066EDD040038D0040031
:1034C0008CDD04004EDB040058DB0400DBC7040085
:1034D0000DDC04001CDC040098DD0400A800570685
:1034E00082EC04004DD10400A7EC0400AEEC040013
:1034F000964A934205F0588000F2608102F17E42C4
:1035000002F57F02934204F04C8563D8A2F53C1289
:10351000934202F00E8726D8A2F59812934201F04A
:10352000888302F59012934202F03A82A2F5981233
:1035300093427EF491A9864D36F022FF36F021FFAA
:103540008449286838F0BEF88349286838F0BAF80A
:10355000A2888249286838F0B5F828688049BDE813
:10356000384038F0AFB87F4A934203F0158502F532
:103570008022934204F06E80A2F5101293427EF4F2
:103580006BA9734D36F0FCFE36F0FBFE76492868D9
:1035900038F098F87549286838F094F8A2886F498F
:1035A000286838F08FF87249286838F08BF8E2887C
:1035B0006A49286838F086F86E49286838F082F839
:1035C00008216018FEF7BCF828686549BDE8384056
:1035D00038F078B8684A934202F0048200F283809F
:1035E000A2F59812934200F0638702F5803293426D
:1035F00001F05183A2F53C0293427EF42DA9544D73
:1036000036F0BEFE36F0BDFE5C49286838F05AF848
:103610005649286838F056F8A2885049286838F08A
:1036200051F85749286838F04DF8E2884B49286826
:1036300038F048F85349286838F044F8227A52495B
:10364000286838F03FF85149286838F03BF8627A2A
:103650004D49286838F036F84D49286838F032F876
:1036600062893E49286838F02DF84A49286838F0C0
:1036700029F8A2893949286838F024F84649286889
:1036800038F020F8A27B4049286838F01BF84349FD
:10369000286838F017F8B4F80F203049286838F057
:1036A00011F83F49286838F00DF8627C36492868DF
:1036B00038F008F83B49286838F004F8A27C324911
:1036C000286837F0FFFF3849286837F0FBFFB4F867
:1036D00013202249286837F0F5FF28682049BDE803
:1036E000384037F0EFBF314A934202F0778602F557
:1036F000803293427EF4B0A8154D36F041FE36F08C
:1037000040FE2B49286837F0DDFF1849286837F05C
:10371000D9FFA2881149286837F0D4FF25492868C5
:1037200037F0D0FFE2880D49286837F0CBFF2249F7
:10373000286837F0C7FF217A04F10900FEF718F86E
:1037400028680749BDE8384037F0BCBFA8005808D2
:10375000541B0020E1C80400D8C804003EBC04008B
:1037600097C70400A800490747DE040038D00400CA
:103770004DD104004EDB0400A800270835F00400FA
:103780005ED10400EBCF0400BFC704003BCE0400B1
:10379000CAEB0400CDD00400A0E2040000EC040059
:1037A000C8DD0400ECEB040019E90400A8002808B7
:1037B00067DE040098DE0400AFDE0400B34A9342E3
:1037C00005F0C18400F29380A2F59802934201F0C3
:1037D00094825CD8A2F53402934205F08A8402F503
:1037E0003302934200F09086A2F53B0293427EF4AE
:1037F00033A8A74D36F0C4FD36F0C3FDA5492868AF
:1038000037F060FFA449286837F05CFFA288A3491D
:10381000286837F057FFA249286837F053FFE2883D
:103820009E49286837F04EFF9E49286837F04AFFC6
:10383000227A9D49286837F045FF9C49286837F06F
:1038400041FF627A9849286837F03CFF9849286818
:1038500037F038FFA27A9449286837F033FF95494A
:10386000286837F02FFFE27A8F49286837F02AFF5F
:103870009149286837F026FF217B04F10D00FDF700
:1038800077FF28688D49BDE8384037F01BBF8C4A68
:10389000934202F0BB8502F54412934205F08A81FF
:1038A000A2F5481293427DF4D7AF794D36F068FD0A
:1038B00036F067FD8349286837F004FF824928689D
:1038C00037F000FFA2887549286837F0FBFE7F4972
:1038D000286837F0F7FED4F806207D49286837F0CD
:1038E000F1FE28687549BDE8384037F0EBBE794AEB
:1038F000934203F0388412D8A2F50C12934202F0DE
:10390000928002F58032934202F0AA85A2F5A012BD
:1039100093427DF4A1AFBDE83840FDF749BF6E4A40
:10392000934205F08E8102F5002293427DF494AF1C
:10393000574D36F025FD36F024FD6849286837F0EC
:10394000C1FE5549286837F0BDFEA2885349286852
:1039500037F0B8FE6249286837F0B4FED4F8062084
:103960005B49286837F0AEFE5E49286837F0AAFE4A
:1039700004F10A000821FDF7E3FE4F49286837F0FB
:10398000A1FEA17C04F11300FDF7F2FE28684B496B
:10399000BDE8384037F096BE534A934204F09E8704
:1039A00000F24A8202F17B42934204F0978600F2D1
:1039B000028102F17E42934204F0428600F2A0802E
:1039C000A2F57F02934205F0AD8130D8A2F54412F2
:1039D000934202F05D8502F54012934204F00586A1
:1039E000A2F5441293427DF437AF294D36F0C8FC5E
:1039F00036F0C7FC3D49286837F064FE3249286834
:103A000037F060FEA2882549286837F05BFE2F4911
:103A1000286837F057FED4F806202D49286837F07B
:103A200051FE28682549BDE8384037F04BBE304A82
:103A3000934202F05A8002F58032934202F0A4844D
:103A4000A2F5A01293427DF407AF114D36F098FC19
:103A500036F097FC2749286837F034FE2649286855
:103A600037F030FE62681A49286837F02BFE234988
:103A7000286837F027FE227A0B49286837F022FEA3
:103A800028680E49BDE8384037F01CBEA80061091F
:103A9000541B00205DF0040038D004003EBC04003C
:103AA0005ED10400EBCF0400BFC704003BCE04008E
:103AB00013C904005DED0400AEEC040097C70400D8
:103AC000A80028094ED60400D8C804007CCF040002
:103AD000DBC70400A8004A0AA800590A73F30400CF
:103AE000A7EC04004EDB0400A8005813E3D6040042
:103AF000A800270CBDC90400D0C70400DEC904001B
:103B0000AF4A934202F0F7841DD8A2F5981293426F
:103B100001F01C8102F59012934202F00780A2F599
:103B2000981293427DF498AEA64C36F029FC36F0FC
:103B300028FCA549206837F0C5FD2068A349BDE8E9
:103B4000384037F0BFBDA24A934200F0348502F5F9
:103B50009812934202F00C80A2F54F0293427DF43A
:103B60007BAE984D36F00CFC36F00BFC994928687A
:103B700037F0A8FD9849286837F0A4FDA288974936
:103B8000286837F09FFD9649286837F09BFDE2884A
:103B90009249286837F096FD9249286837F092FDDF
:103BA000217A04F10900FDF7E3FD28688749BDE8A3
:103BB000384037F087BD8C4A934202F0C1807BD8F1
:103BC00002F17E4202F56D02934200F020853AD860
:103BD000A2F56D02934202F05B8002F5441293421B
:103BE00004F0EC85A2F5880293427DF435AE754D64
:103BF00036F0C6FB36F0C5FB7C49286837F062FD1D
:103C00007B49286837F05EFD22797A49286837F0C9
:103C100059FD7949286837F055FDB4F805206F49FA
:103C2000286837F04FFD7549286837F04BFDB4F828
:103C300007206A49286837F045FD28686349BDE8D0
:103C4000384037F03FBD6E4A934204F0F38502F5E9
:103C50003C02934200F00585A2F56D0293427DF48B
:103C6000FBAD584D36F08CFB36F08BFB6549286870
:103C700037F028FD6449286837F024FDA2885749A9
:103C8000286837F01FFD6149286837F01BFDD4F81C
:103C900006205F49286837F015FD5E49286837F02F
:103CA00011FDA27A5349286837F00CFD286847496E
:103CB000BDE8384037F006BD574A934204F0E4852A
:103CC00038D8A2F58802934200F0F58402F59812E4
:103CD000934202F06080A2F54F0293427DF4BCADA6
:103CE000384D36F04DFB36F04CFB4C49286837F028
:103CF000E9FC3949286837F0E5FCA288374928688B
:103D000037F0E0FC3649286837F0DCFCE2883349BC
:103D1000286837F0D7FC4249286837F0D3FC217A6D
:103D200004F10900FDF724FD28682849BDE8384062
:103D300037F0C8BC3B4A934200F0DE8402F598128B
:103D400093427DF489AD1F4D36F01AFB36F019FB16
:103D50003549286837F0B6FC2B49286837F0B2FCA3
:103D6000A2881E49286837F0ADFC2849286837F03A
:103D7000A9FCD4F806202649286837F0A3FC2B4973
:103D8000286837F09FFCA27A1A49286837F09AFC15
:103D90002749286837F096FCE27A1649286837F0F8
:103DA00091FC2449286837F08DFCA2890B492868CA
:103DB00037F088FC28680549BDE8384037F082BCF8
:103DC000A800280D541B0020E6C9040097C7040072
:103DD000A800140E68ED040038D004003EBC0400B6
:103DE0004DD104004EE80400A800271119CA0400B0
:103DF00013C90400BFC704001AC904000EC8040098
:103E0000A8005810DBD70400D8C804007CCF0400F9
:103E1000DBC7040037C80400A80058120AEE0400EB
:103E2000AEEC0400A800141347D8040067D80400BF
:103E3000B7D60400CAD60400B24A934200F06E8599
:103E400000F2ED8002F17E42934200F0138574D8B7
:103E500002F17F42934200F0BD842ED8A2F57F028A
:103E6000934200F0948702F59012934201F0BE87CE
:103E7000A2F5981293427DF4EFACA34D36F080FA90
:103E800036F07FFAA149286837F01CFCA049286861
:103E900037F018FC22799F49286837F013FC9E49B7
:103EA000286837F00FFC6179A01DFDF761FC2868D8
:103EB0009A49BDE8384037F005BC994A934201F071
:103EC000CA8702F54412934204F02985A2F58602BE
:103ED00093427DF4C1AC8C4D36F052FA36F051FA73
:103EE0009049286837F0EEFB8F49286837F0EAFBE5
:103EF000A2888E49286837F0E5FB8D49286837F09D
:103F0000E1FBA2798349286837F0DCFB89492868FE
:103F100037F0D8FBE01D1021FDF712FC8649286818
:103F200037F0D0FBE27D7B49286837F0CBFB28686F
:103F30007A49BDE8384037F0C5BB804A934200F06B
:103F4000D5842FD8A2F56D02934201F0AF8702F518
:103F50004412934204F00485A2F5860293427DF454
:103F60007BAC694D36F00CFA36F00BFA74492868D0
:103F700037F0A8FB6C49286837F0A4FBA2886B498E
:103F8000286837F09FFB6F49286837F09BFBE28871
:103F90006649286837F096FB28686049BDE83840D4
:103FA00037F090BB684A934200F0F38402F5901218
:103FB00093427DF451AC544D36F0E2F936F0E1F91C
:103FC0006249286837F07EFB5E49286837F07AFB43
:103FD000A2885649286837F075FB5D49286837F094
:103FE00071FBD4F806205B49286837F06BFB5A490F
:103FF000286837F067FB62894C49286837F062FB14
:104000005649286837F05EFB227B4249286837F022
:1040100059FB28684149BDE8384037F053BB504A46
:10402000934201F0C78700F2A580A2F18972934202
:1040300000F00C872ED8A2F56E02934201F08E8715
:1040400002F56D02934200F0DD83A2F57F029342F8
:104050007DF402AC2C4D36F093F936F092F94149DB
:10406000286837F02FFB3349286837F02BFB201DD9
:104070001021FDF765FB3C49286837F023FB227DC2
:104080002449286837F01EFB28682449BDE83840D9
:1040900037F018BB354A934200F0D48302F58032E2
:1040A000934200F0F386A2F56E0293427DF4D4AB06
:1040B000154D36F065F936F064F92D49286837F06A
:1040C00001FB2349286837F0FDFA62682149286816
:1040D00037F0F8FA0E49286837F0F4FA227A0D49D9
:1040E000286837F0EFFA0C49286837F0EBFA617A64
:1040F00004F10A00FDF73CFB28680849BDE8384098
:1041000037F0E0BAA8001418541B0020D4CA0400E9
:10411000EDCA0400BFC704007AC8040097C70400B2
:10412000A800271543CE040035CE04003EBC040091
:104130003BCE040055CC040065CE0400A800141743
:104140006FCE0400D8C80400A800151706D90400D3
:104150007CCF0400DBC704000EC8040037C804008D
:10416000A800271A34CC04005CCC0400A800141A60
:104170006ED90400AD4A934201F0608726D802F15F
:104180007F42934201F0388702F56E02934200F0BD
:104190009D8602F17F4293427DF45EABA44D36F0E2
:1041A000EFF836F0EEF8A349286837F08BFAA24909
:1041B000286837F087FAA288A049286837F082FA81
:1041C00028689F49BDE8384037F07CBA9D4A934241
:1041D00000F0A58602F1807293427DF43DAB944DD0
:1041E00036F0CEF836F0CDF89749286837F06AFAFD
:1041F0009649286837F066FA201D1021FDF7A0FACD
:104200009349286837F05EFA227D9249286837F092
:1042100059FA9149286837F055FA627D8D49286826
:1042200037F050FA8D49286837F04CFAA27D894959
:10423000286837F047FA8A49286837F043FAE27D60
:104240008449286837F03EFA8649286837F03AFAF8
:10425000227E8049286837F035FA28687849BDE819
:10426000384037F02FBA724D36F08AF836F089F8B8
:104270007D49286837F026FA7C49286837F022FA09
:1042800022797449286837F01DFA7949286837F08F
:1042900019FAB4F805206949286837F013FA754906
:1042A000286837F00FFAD4F807207349286837F0E8
:1042B00009FA28686249BDE8384037F003BA5C4D16
:1042C00036F05EF836F05DF86C49286837F0FAF998
:1042D0006749286837F0F6F9A2885849286837F006
:1042E000F1F96449286837F0EDF9D4F806206249FD
:1042F000286837F0E7F928685149BDE8384037F0B9
:10430000E1B94B4D36F03CF836F03BF85C49286893
:1043100037F0D8F95B49286837F0D4F9A2884749C3
:10432000286837F0CFF95849286837F0CBF9E28888
:104330004249286837F0C6F928684149BDE8384045
:1043400037F0C0B93A4D36F01BF836F01AF84F493D
:10435000286837F0B7F94B49286837F0B3F9A288D5
:104360003649286837F0AEF94749286837F0AAF986
:10437000E2883249286837F0A5F94549286837F0BE
:10438000A1F9217A04F10900FDF7F2F928682C4916
:10439000BDE8384037F096B9254D35F0F1FF35F0DE
:1043A000F0FF3C49286837F08DF93B49286837F021
:1043B00089F922792749286837F084F9374928682C
:1043C00037F080F962792349286837F07BF934495E
:1043D000286837F077F9A179E01DFDF7C9F9286859
:1043E0001749BDE8384037F06DB9114D35F0C8FFB9
:1043F00035F0C7FF2B49286837F064F92A49286847
:1044000037F060F922791349286837F05BF92749BA
:10441000286837F057F962790E49286837F052F961
:1044200028680749BDE8384037F04CB9A800271C78
:10443000541B0020D3CE0400D8C804003EBC0400A6
:1044400097C70400A800151D52CF040055CC0400E6
:1044500076CB0400BFC7040082CB04008FCB0400DE
:10446000A7CB0400BFCB04009BC70400B1C7040066
:10447000C6C70400D0C70400DBC70400E3C70400BC
:10448000F9C704000EC804001DC8040022C80400B7
:1044900037C804003FC804005CC804006CC80400AE
:1044A0007AC8040081C804009DC80400ACC8040098
:1044B000AB4D35F065FF35F064FFAA49286837F049
:1044C00001F9A949286837F0FDF82279A749286839
:1044D00037F0F8F8A649286837F0F4F8B4F8052062
:1044E000A449286837F0EEF8A349286837F0EAF8BD
:1044F000B4F807209F49286837F0E4F828689F49F6
:10450000BDE8384037F0DEB8954D35F039FF35F06D
:1045100038FF9B49286837F0D5F89A49286837F062
:10452000D1F822799149286837F0CCF89649286863
:1045300037F0C8F8B4F805208E49286837F0C2F87B
:104540009249286837F0BEF8B4F8072089492868EE
:1045500037F0B8F88E49286837F0B4F8B4F8092075
:104560008449286837F0AEF828688449BDE83840A7
:1045700037F0A8B87A4D35F003FF35F002FF8549D2
:10458000286837F09FF88449286837F09BF86268FC
:104590008249286837F096F88149286837F092F800
:1045A000A2687E49286837F08DF828687349BDE80D
:1045B000384037F087B86A4D35F0E2FE35F0E1FE5D
:1045C0007849286837F07EF86749286837F07AF824
:1045D00022796649286837F075F86549286837F008
:1045E00071F8B4F805206349286837F06BF8624920
:1045F000286837F067F8B4F807205E49286837F074
:1046000061F828685D49BDE8384037F05BB8544D23
:1046100035F0B6FE35F0B5FE6349286837F052F83C
:104620006249286837F04EF8A2885249286837F066
:1046300049F85F49286837F045F8E2884D4928680D
:1046400037F040F85B49286837F03CF8227A474950
:10465000286837F037F828684849BDE8384037F00F
:1046600031B83F4D35F08CFE35F08BFE524928684D
:1046700037F028F84D49286837F024F8A2883D49DA
:10468000286837F01FF84A49286837F01BF8E28895
:104690003849286837F016F84849286837F012F882
:1046A000A2683E49286837F00DF828683349BDE80C
:1046B000384037F007B82A4D35F062FE35F061FE1C
:1046C0003F49286836F0FEFF3849286836F0FAFF7F
:1046D000A2882849286836F0F5FF3549286836F061
:1046E000F1FFE2882349286836F0ECFF2868234967
:1046F000BDE8384036F0E6BF194D35F041FE35F0E3
:1047000040FE3049286836F0DDFF1B49286836F046
:10471000D9FFA2881749286836F0D4FF2A492868AB
:1047200036F0D0FFA2791149286836F0CBFF27492F
:10473000286836F0C7FFE2790C49286836F0C2FFD6
:104740002349286836F0BEFFA2681449286836F06D
:10475000B9FF28680949BDE8384036F0B3BF00BF4B
:10476000541B0020FFC8040013C90400BFC7040085
:104770001AC904003EBC04000EC8040097C7040018
:1047800022C9040041C9040055C9040067C90400D6
:1047900073C904007EC904009AC90400DBC7040081
:1047A000AAC9040003CA04002FCA040043CA0400B3
:1047B0004ECA040059CA040060CA04007ACA040040
:1047C00087CA0400A0CA0400BACA0400C8CA040008
:1047D000D0C70400AF4D35F0D3FD35F0D2FDAE4962
:1047E000286836F06FFFAD49286836F06BFFA28865
:1047F000AB49286836F066FF2868AA49BDE838400A
:1048000036F060BFA34D35F0BBFD35F0BAFDA649CB
:10481000286836F057FFA549286836F053FF2279FB
:10482000A349286836F04EFFA249286836F04AFFAF
:104830006179A01DFCF79CFF28689A49BDE83840C3
:1048400036F040BF934D35F09BFD35F09AFD9A4907
:10485000286836F037FF9149286836F033FFA28880
:104860008F49286836F02EFF28688E49BDE8384009
:1048700036F028BF874D35F083FD35F082FD8F4936
:10488000286836F01FFF8E49286836F01BFF227912
:104890008749286836F016FF8A49286836F012FFE3
:1048A00062798349286836F00DFF8749286836F019
:1048B00009FFA2797E49286836F004FF83492868F9
:1048C00036F000FFE2797A49286836F0FBFE80492D
:1048D000286836F0F7FE227A7549286836F0F2FE2D
:1048E00028687049BDE8384036F0ECBE694D35F0B7
:1048F00047FD35F046FD7749286836F0E3FE7649F6
:10490000286836F0DFFEA2886549286836F0DAFEAE
:1049100028686449BDE8384036F0D4BE5D4C35F0B7
:104920002FFD35F02EFD6D49206836F0CBFE206856
:104930005C49BDE8384036F0C5BE564D35F020FD27
:1049400035F01FFD6649286836F0BCFE65492868C9
:1049500036F0B8FE22795649286836F0B3FE62492F
:10496000286836F0AFFEB4F805204D49286836F0C7
:10497000A9FE5E49286836F0A5FED4F807205C49F8
:10498000286836F09FFE28684649BDE8384036F072
:1049900099BE404D35F0F4FC35F0F3FC55492868DC
:1049A00036F090FE5449286836F08CFE201D102108
:1049B000FCF7C6FE5149286836F084FE227D3C494A
:1049C000286836F07FFE4E49286836F07BFEB4F842
:1049D00015203349286836F075FE4A49286836F0B4
:1049E00071FEE27D3249286836F06CFE464928683F
:1049F00036F068FE227E2E49286836F063FE434971
:104A0000286836F05FFE627E2949286836F05AFE33
:104A10003F49286836F056FE628B2149286836F0F7
:104A200051FE3C49286836F04DFE227F2049286817
:104A300036F048FE3849286836F044FEB4F81D20A8
:104A40001749286836F03EFE28681649BDE8384008
:104A500036F038BE0F4D35F093FC35F092FC2F49FF
:104A6000286836F02FFE2E49286836F02BFE227972
:104A70000F49286836F026FE1F49286836F022FEC6
:104A8000601D1021FCF75CFE28680649BDE838402F
:104A900036F018BE541B0020F4CA0400D8C8040025
:104AA0003EBC040097C7040011CB0400EDCA04000B
:104AB000BFC704007AC8040035CB04005DCB0400F6
:104AC00076CB040082CB04008FCB0400A7CB04007C
:104AD000BFCB0400D5CB0400EFCB0400FDCB04001A
:104AE00013CC040029CC0400C6C70400D0C70400BE
:104AF000DBC7040065CC040055CC04007CCC04006A
:104B000087CC040094CC0400A0CC0400B2CC0400F8
:104B1000C3CC0400D7CC0400E8CC0400FCCC0400D7
:104B20005CCC0400AA4D35F02BFC35F02AFCA949D9
:104B3000286836F0C7FDA849286836F0C3FDA2886A
:104B4000A649286836F0BEFDA549286836F0BAFDAA
:104B5000A01D1021FCF7F4FD2868A249BDE83840EB
:104B600036F0B0BD9A4D35F00BFC35F00AFC9E498D
:104B7000286836F0A7FD9D49286836F0A3FDA28875
:104B80009649286836F09EFD9949286836F09AFDC6
:104B9000D4F806209749286836F094FD964928688D
:104BA00036F090FDA27A9549286836F08BFD8A4947
:104BB000286836F087FD04F10B000621FCF7C0FDE4
:104BC0008F49286836F07EFD627C8C49286836F073
:104BD00079FD8349286836F075FD04F11200102133
:104BE000FCF7AEFD8749286836F06CFD94F9222069
:104BF0008549286836F066FD28687A49BDE838405E
:104C000036F060BD724D35F0BBFB35F0BAFB7F4925
:104C1000286836F057FD7249286836F053FD201D8C
:104C20001021FCF78DFD28686E49BDE8384036F04C
:104C300049BD674D35F0A4FB35F0A3FB74492868E6
:104C400036F040FD7349286836F03CFD22796B4907
:104C5000286836F037FD7049286836F033FD6279F0
:104C60006649286836F02EFD6C49286836F02AFD22
:104C7000A2796249286836F025FD5949286836F03E
:104C800021FDE01D1021FCF75BFD28685549BDE8BA
:104C9000384036F017BD4E4D35F072FB35F071FBE4
:104CA0005F49286836F00EFD4D49286836F00AFD48
:104CB000201D1021FCF744FD5A49286836F002FDFA
:104CC000227D4E49286836F0FDFC5749286836F0A9
:104CD000F9FC627D4949286836F0F4FC534928689C
:104CE00036F0F0FCA17D04F11700FCF741FD2868C7
:104CF0003C49BDE8384036F0E5BC354D35F040FB69
:104D000035F03FFB4A49286836F0DCFC3449286816
:104D100036F0D8FC201D1021FCF712FD2E49286822
:104D200036F0D0FCA28A2D49286836F0CBFC4149E8
:104D3000286836F0C7FCA27D3049286836F0C2FCEE
:104D400028682849BDE8384036F0BCBC204D35F015
:104D500017FB35F016FB3849286836F0B3FC3749A5
:104D6000286836F0AFFC62682249286836F0AAFC51
:104D70002E49286836F0A6FC217A04F10900FCF7D8
:104D8000F7FC28681749BDE8384036F09BBC104D49
:104D900035F0F6FA35F0F5FA2949286836F092FC34
:104DA0002849286836F08EFCA2880C49286836F01D
:104DB00089FC2549286836F085FCA2790F492868C6
:104DC00036F080FC28680749BDE8384036F07ABCE8
:104DD000541B00201ACD0400C6C704003EBC0400CA
:104DE00055CC040097C7040037CD04004FCD040014
:104DF00062CD0400DBC704006DCD0400BFC7040012
:104E000076CD040085CD04008CCD04008FCD040048
:104E1000AACD0400C5CD04005CC804006CC8040021
:104E2000CECD04009DC80400ACC804007AC80400BC
:104E3000EACD04007CCC0400FDCD04000BCE0400C0
:104E400012CE040035CE04003BCE0400834D35F075
:104E500097FA35F096FA8249286836F033FC814992
:104E6000286836F02FFCA2887F49286836F02AFC93
:104E70007E49286836F026FCA01D1021FCF760FC56
:104E800028687B49BDE8384036F01CBC734D35F0CE
:104E900077FA35F076FA7749286836F013FC7149CD
:104EA000286836F00FFCA2886F49286836F00AFCA3
:104EB0006E49286836F006FCA01D1021FCF740FC66
:104EC00028686B49BDE8384036F0FCBB634D35F0CF
:104ED00057FA35F056FA6849286836F0F3FB61490D
:104EE000286836F0EFFBA2885F49286836F0EAFBB5
:104EF0005E49286836F0E6FBA01D1021FCF720FC77
:104F00005E49286836F0DEFBA17D04F11700FCF74E
:104F10002FFC28685649BDE8384036F0D3BB4F4DCA
:104F200035F02EFA35F02DFA5549286836F0CAFBCF
:104F30004C49286836F0C6FBA2884B49286836F0F1
:104F4000C1FB4A49286836F0BDFBA01D1021FCF7C3
:104F5000F7FB4C49286836F0B5FBE28A42492868DD
:104F600036F0B0FB4849286836F0ACFB227E474952
:104F7000286836F0A7FB4649286836F0A3FB617E17
:104F800004F11A00FCF7F4FB28683949BDE8384001
:104F900036F098BB314D35F0F3F935F0F2F93D4973
:104FA000286836F08FFB3C49286836F08BFB626836
:104FB0003A49286836F086FB28682D49BDE8384014
:104FC00036F080BB254D35F0DBF935F0DAF93449A0
:104FD000286836F077FB3049286836F073FB626842
:104FE0002E49286836F06EFB2E49286836F06AFB99
:104FF00022891D49286836F065FB28681C49BDE8F0
:10500000384036F05FBB154D35F0BAF935F0B9F9D7
:105010002549286836F056FB1F49286836F052FBB0
:1050200062681E49286836F04DFB2049286836F032
:1050300049FB227A1549286836F044FB1C49286848
:1050400036F040FBB4F809200749286836F03AFBEF
:1050500028680749BDE8384036F034BB541B0020AF
:105060008ECE0400D8C804003EBC040055CC040019
:1050700097C70400AFCE0400F3CE040017CF04009E
:105080001ECF040041CF04004ACF0400BFC7040074
:105090007AC8040067CF04007CCF0400DBC704009B
:1050A00085CF04005CCC04009DCF040013C904002C
:1050B000B6CF0400944D35F063F935F062F99349A9
:1050C000286836F0FFFA9249286836F0FBFAA28881
:1050D0009049286836F0F6FA8F49286836F0F2FAD7
:1050E000E2888C49286836F0EDFA8C49286836F059
:1050F000E9FA22898749286836F0E4FA884928685D
:1051000036F0E0FA62898349286836F0DBFA85498F
:10511000286836F0D7FAA2897E49286836F0D2FA94
:105120008149286836F0CEFA94F90E207F49286824
:1051300036F0C8FA7E49286836F0C4FAB4F80F2071
:105140007449286836F0BEFA7A49286836F0BAFA07
:10515000627C7949286836F0B5FA7849286836F0D3
:10516000B1FAA27C7449286836F0ACFA7449286810
:1051700036F0A8FAE27C7049286836F0A3FA714943
:10518000286836F09FFA227D6B49286836F09AFA33
:105190006D49286836F096FA617D04F11600FCF737
:1051A000E7FA28686949BDE8384036F08BBA564DB1
:1051B00035F0E6F835F0E5F86549286836F082FA0A
:1051C0006449286836F07EFAA2885249286836F089
:1051D00079FA5149286836F075FAE2884D4928680D
:1051E00036F070FA5C49286836F06CFA2289494931
:1051F000286836F067FA5949286836F063FA6289F8
:105200004449286836F05EFA5549286836F05AFA5B
:10521000227B4949286836F055FA28684B49BDE891
:10522000384036F04FBA384D35F0AAF835F0A9F8C5
:105230004C49286836F046FA3749286836F042FA71
:10524000A2883449286836F03DFA4749286836F084
:1052500039FAA2793849286836F034FA28683B4987
:10526000BDE8384036F02EBA274D35F089F835F0D4
:1052700088F83E49286836F025FA3749286836F01C
:1052800021FAA2882349286836F01CFA22492868A6
:1052900036F018FAE2881F49286836F013FA2D49CB
:1052A000286836F00FFA22891A49286836F00AFA77
:1052B0001F49286836F006FA62891649286836F0D0
:1052C00001FA2B49286836F0FDF9227B1A49286833
:1052D00036F0F8F91149286836F0F4F9B4F80D20E1
:1052E0000C49286836F0EEF92249286836F0EAF9C8
:1052F000E27B1149286836F0E5F928681349BDE8D2
:10530000384036F0DFB900BF541B002081D00400C4
:105310009BD004003EBC040038D0040067C90400E0
:1053200073C90400B1D00400C2D004008CCD0400C5
:10533000CDD00400DCD00400BFC70400E9D00400D5
:10534000F9D004004ACF040002D1040097C704003A
:105350008CD104004DD104005ED10400D8C80400F3
:10536000B4D10400F8D1040015D2040021D2040005
:1053700079D1040041D20400A84D35F001F835F090
:1053800000F8A749286836F09DF9A649286836F044
:1053900099F9A288A449286836F094F9A3492868A5
:1053A00036F090F9E288A049286836F08BF9A049D8
:1053B000286836F087F922899B49286836F082F9F7
:1053C0009C49286836F07EF962899749286836F04A
:1053D00079F99949286836F075F9E268974928689B
:1053E00036F070F99649286836F06CF9228A8E49B1
:1053F000286836F067F99349286836F063F9A27C8B
:105400009149286836F05EF99049286836F05AF9D3
:10541000E17C04F11400FCF7ABF928688C49BDE885
:10542000384036F04FB97D4D34F0AAFF34F0A9FF73
:105430008849286836F046F97E49286836F042F9EE
:10544000A2887949286836F03DF97849286836F00D
:1054500039F9E2887449286836F034F974492868C3
:1054600036F030F922897049286836F02BF96D49F9
:10547000286836F027F962896B49286836F022F9E6
:105480007549286836F01EF9A2896749286836F000
:1054900019F97249286836F015F9D4F80E206749D1
:1054A000286836F00FF96E49286836F00BF9628AE1
:1054B0005D49286836F006F96149286836F002F936
:1054C000A28A5949286836F0FDF85E49286836F006
:1054D000F9F8A27D5C49286836F0F4F85B49286841
:1054E00036F0F0F8E17D04F11800FCF741F9286886
:1054F0005749BDE8384036F0E5B8484D34F040FF34
:1055000034F03FFF5749286836F0DCF847492868EF
:1055100036F0D8F8A2884449286836F0D3F84449D0
:10552000286836F0CFF8E2883F49286836F0CAF894
:105530004149286836F0C6F8A2684049286836F024
:10554000C1F84049286836F0BDF8227B3E492868FA
:1055500036F0B8F83D49286836F0B4F8617B04F1BC
:105560000E00FCF705F928683949BDE8384036F0E7
:10557000A9B82A4D34F004FF34F003FF3A492868F3
:1055800036F0A0F82949286836F09CF8A288264908
:10559000286836F097F82649286836F093F8E288AC
:1055A0002149286836F08EF83049286836F08AF8A4
:1055B000A2682249286836F085F82249286836F022
:1055C00081F8227B2049286836F07CF81F4928683A
:1055D00036F078F8617B04F10E00FCF7C9F8286812
:1055E0001B49BDE8384036F06DB80C4D34F0C8FEAC
:1055F00034F0C7FE1E49286836F064F81D49286853
:1056000036F060F8A2880849286836F05BF8286808
:105610000F49BDE8384036F055B800BF541B002094
:1056200055D204004DD104003EBC040038D0040023
:1056300073C904005ED1040077D20400DBC7040004
:1056400086D2040013C90400BFC704008ED2040030
:1056500097C704009BD20400CDD00400BED2040042
:10566000CED20400D9D20400FBD204001CD3040023
:10567000A9D30400C6C70400B14D34F081FE34F054
:1056800080FEB049286836F01DF8AF49286836F02A
:1056900019F8A288AD49286836F014F8AC49286892
:1056A00036F010F8E288A949286836F00BF8A949C5
:1056B000286836F007F82289A449286836F002F8ED
:1056C0002868A549BDE8384035F0FCBF9C4C34F053
:1056D00057FE34F056FEA149206835F0F3FF2068EC
:1056E0009D49BDE8384035F0EDBF954D34F048FE9A
:1056F00034F047FE9A49286835F0E4FF9949286854
:1057000035F0E0FFA2889149286835F0DBFF964923
:10571000286835F0D7FFE2888C49286835F0D2FF39
:1057200028688D49BDE8384035F0CCBF844D34F051
:1057300027FE34F026FE8D49286835F0C3FF8949DD
:10574000286835F0BFFFA2888049286835F0BAFF85
:105750008749286835F0B6FFE2887C49286835F02B
:10576000B1FF28687C49BDE8384035F0ABBF744DC7
:1057700034F006FE34F005FE7E49286835F0A2FFBD
:105780007849286835F09EFFA2887049286835F06E
:1057900099FF7749286835F095FFE2886B492868BA
:1057A00035F090FF28686C49BDE8384035F08ABF75
:1057B000634D34F0E5FD34F0E4FD6F49286835F0C1
:1057C00081FF6849286835F07DFFA2885F49286815
:1057D00035F078FF6949286835F074FFE2885B4945
:1057E000286835F06FFF28685B49BDE8384035F020
:1057F00069BF534D34F0C4FD34F0C3FD60492868DF
:1058000035F060FF5749286835F05CFFA2884F49A2
:10581000286835F057FF5949286835F053FFE2886A
:105820004A49286835F04EFF5149286835F04AFF4B
:1058300022894649286835F045FF28684649BDE871
:10584000384035F03FBF3E4D34F09AFD34F099FDBD
:105850004C49286835F036FF4B49286835F032FF4F
:1058600062684A49286835F02DFF28683A49BDE842
:10587000384035F027BF324D34F082FD34F081FDE1
:105880004349286835F01EFF2F49286835F01AFF74
:10589000A2882E49286835F015FF3B49286835F065
:1058A00011FFD4F806203949286835F00BFF286825
:1058B0002949BDE8384035F005BF214D34F060FD81
:1058C00034F05FFD3349286835F0FCFE2E49286826
:1058D00035F0F8FE62682D49286835F0F3FE2E4950
:1058E000286835F0EFFE217A04F10900FBF740FF4C
:1058F00028681949BDE8384035F0E4BE104D34F051
:105900003FFD34F03EFD2549286835F0DBFE0E49A9
:10591000286835F0D7FEA2880C49286835F0D2FEF9
:105920001949286835F0CEFED4F8062017492868B2
:1059300035F0C8FE28680849BDE8384035F0C2BED9
:10594000541B0020D8D30400D8C804003EBC040077
:10595000FFD304000DD4040097C704001BD4040037
:1059600041D404000EC8040061D4040072D40400C1
:105970005CCC04008DD40400ACD40400CFD404006B
:10598000DDD40400FFD404007CCF0400DBC7040096
:1059900023D50400B8D50400D7D50400E8D5040009
:1059A000A04D34F0EDFC34F0ECFC9F49286835F054
:1059B00089FE9E49286835F085FEA2889C492868A2
:1059C00035F080FE9B49286835F07CFED4F806202F
:1059D0009949286835F076FE28689849BDE838402E
:1059E00035F070BE8F4D34F0CBFC34F0CAFC9449D6
:1059F000286835F067FE8F49286835F063FE6268D5
:105A00008D49286835F05EFE8E49286835F05AFECB
:105A1000217A04F10900FBF7ABFE28688749BDE84D
:105A2000384035F04FBE7F4D34F0AAFC34F0A9FC6D
:105A30008549286835F046FE7C49286835F042FEE5
:105A4000A2887B49286835F03DFE7A49286835F000
:105A500039FED4F806207849286835F033FE7B49B2
:105A6000286835F02FFE62897149286835F02AFED2
:105A70007749286835F026FEA2896D49286835F0F7
:105A800021FE7449286835F01DFEA27B7249286802
:105A900035F018FE7149286835F014FEE27B6E4936
:105AA000286835F00FFE6E49286835F00BFE226934
:105AB0006149286835F006FE6A49286835F002FE1B
:105AC000227D6549286835F0FDFD6749286835F075
:105AD000F9FDB4F815205649286835F0F3FD28681B
